{
  "contractName": "DAO",
  "abi": [
    {
      "anonymous": false,
      "inputs": [
        {
          "indexed": true,
          "internalType": "uint256",
          "name": "proposalId",
          "type": "uint256"
        },
        {
          "indexed": true,
          "internalType": "address",
          "name": "receiverAddress",
          "type": "address"
        },
        {
          "indexed": false,
          "internalType": "uint256",
          "name": "amount",
          "type": "uint256"
        },
        {
          "indexed": false,
          "internalType": "bool",
          "name": "votingPassed",
          "type": "bool"
        }
      ],
      "name": "CharityPropsalFinish",
      "type": "event"
    },
    {
      "anonymous": false,
      "inputs": [
        {
          "indexed": false,
          "internalType": "address",
          "name": "fromAddress",
          "type": "address"
        },
        {
          "indexed": false,
          "internalType": "uint256",
          "name": "amount",
          "type": "uint256"
        }
      ],
      "name": "ContributionReceived",
      "type": "event"
    },
    {
      "anonymous": false,
      "inputs": [
        {
          "indexed": false,
          "internalType": "uint256",
          "name": "proposalId",
          "type": "uint256"
        },
        {
          "indexed": true,
          "internalType": "address",
          "name": "proposer",
          "type": "address"
        },
        {
          "indexed": false,
          "internalType": "uint256",
          "name": "amount",
          "type": "uint256"
        }
      ],
      "name": "NewCharityProposal",
      "type": "event"
    },
    {
      "anonymous": false,
      "inputs": [
        {
          "indexed": true,
          "internalType": "uint256",
          "name": "proposalId",
          "type": "uint256"
        },
        {
          "indexed": true,
          "internalType": "address",
          "name": "receiverAddress",
          "type": "address"
        },
        {
          "indexed": false,
          "internalType": "uint256",
          "name": "amount",
          "type": "uint256"
        }
      ],
      "name": "PropsalTransfered",
      "type": "event"
    },
    {
      "anonymous": false,
      "inputs": [
        {
          "indexed": true,
          "internalType": "bytes32",
          "name": "role",
          "type": "bytes32"
        },
        {
          "indexed": true,
          "internalType": "bytes32",
          "name": "previousAdminRole",
          "type": "bytes32"
        },
        {
          "indexed": true,
          "internalType": "bytes32",
          "name": "newAdminRole",
          "type": "bytes32"
        }
      ],
      "name": "RoleAdminChanged",
      "type": "event"
    },
    {
      "anonymous": false,
      "inputs": [
        {
          "indexed": true,
          "internalType": "bytes32",
          "name": "role",
          "type": "bytes32"
        },
        {
          "indexed": true,
          "internalType": "address",
          "name": "account",
          "type": "address"
        },
        {
          "indexed": true,
          "internalType": "address",
          "name": "sender",
          "type": "address"
        }
      ],
      "name": "RoleGranted",
      "type": "event"
    },
    {
      "anonymous": false,
      "inputs": [
        {
          "indexed": true,
          "internalType": "bytes32",
          "name": "role",
          "type": "bytes32"
        },
        {
          "indexed": true,
          "internalType": "address",
          "name": "account",
          "type": "address"
        },
        {
          "indexed": true,
          "internalType": "address",
          "name": "sender",
          "type": "address"
        }
      ],
      "name": "RoleRevoked",
      "type": "event"
    },
    {
      "stateMutability": "payable",
      "type": "fallback"
    },
    {
      "inputs": [],
      "name": "DEFAULT_ADMIN_ROLE",
      "outputs": [
        {
          "internalType": "bytes32",
          "name": "",
          "type": "bytes32"
        }
      ],
      "stateMutability": "view",
      "type": "function"
    },
    {
      "inputs": [],
      "name": "GOVERNOR_ROLE",
      "outputs": [
        {
          "internalType": "bytes32",
          "name": "",
          "type": "bytes32"
        }
      ],
      "stateMutability": "view",
      "type": "function"
    },
    {
      "inputs": [],
      "name": "availableBalance",
      "outputs": [
        {
          "internalType": "uint256",
          "name": "",
          "type": "uint256"
        }
      ],
      "stateMutability": "view",
      "type": "function"
    },
    {
      "inputs": [],
      "name": "charityProposalNonce",
      "outputs": [
        {
          "internalType": "uint256",
          "name": "",
          "type": "uint256"
        }
      ],
      "stateMutability": "view",
      "type": "function"
    },
    {
      "inputs": [
        {
          "internalType": "bytes32",
          "name": "role",
          "type": "bytes32"
        }
      ],
      "name": "getRoleAdmin",
      "outputs": [
        {
          "internalType": "bytes32",
          "name": "",
          "type": "bytes32"
        }
      ],
      "stateMutability": "view",
      "type": "function"
    },
    {
      "inputs": [],
      "name": "governanceProposalNonce",
      "outputs": [
        {
          "internalType": "uint256",
          "name": "",
          "type": "uint256"
        }
      ],
      "stateMutability": "view",
      "type": "function"
    },
    {
      "inputs": [],
      "name": "governanceStaked",
      "outputs": [
        {
          "internalType": "uint256",
          "name": "",
          "type": "uint256"
        }
      ],
      "stateMutability": "view",
      "type": "function"
    },
    {
      "inputs": [
        {
          "internalType": "bytes32",
          "name": "role",
          "type": "bytes32"
        },
        {
          "internalType": "address",
          "name": "account",
          "type": "address"
        }
      ],
      "name": "grantRole",
      "outputs": [],
      "stateMutability": "nonpayable",
      "type": "function"
    },
    {
      "inputs": [
        {
          "internalType": "bytes32",
          "name": "role",
          "type": "bytes32"
        },
        {
          "internalType": "address",
          "name": "account",
          "type": "address"
        }
      ],
      "name": "hasRole",
      "outputs": [
        {
          "internalType": "bool",
          "name": "",
          "type": "bool"
        }
      ],
      "stateMutability": "view",
      "type": "function"
    },
    {
      "inputs": [],
      "name": "minAmountGovernor",
      "outputs": [
        {
          "internalType": "uint256",
          "name": "",
          "type": "uint256"
        }
      ],
      "stateMutability": "view",
      "type": "function"
    },
    {
      "inputs": [],
      "name": "numOfProposals",
      "outputs": [
        {
          "internalType": "uint256",
          "name": "",
          "type": "uint256"
        }
      ],
      "stateMutability": "view",
      "type": "function"
    },
    {
      "inputs": [],
      "name": "pendingBalance",
      "outputs": [
        {
          "internalType": "uint256",
          "name": "",
          "type": "uint256"
        }
      ],
      "stateMutability": "view",
      "type": "function"
    },
    {
      "inputs": [
        {
          "internalType": "bytes32",
          "name": "role",
          "type": "bytes32"
        },
        {
          "internalType": "address",
          "name": "account",
          "type": "address"
        }
      ],
      "name": "renounceRole",
      "outputs": [],
      "stateMutability": "nonpayable",
      "type": "function"
    },
    {
      "inputs": [
        {
          "internalType": "bytes32",
          "name": "role",
          "type": "bytes32"
        },
        {
          "internalType": "address",
          "name": "account",
          "type": "address"
        }
      ],
      "name": "revokeRole",
      "outputs": [],
      "stateMutability": "nonpayable",
      "type": "function"
    },
    {
      "inputs": [
        {
          "internalType": "bytes4",
          "name": "interfaceId",
          "type": "bytes4"
        }
      ],
      "name": "supportsInterface",
      "outputs": [
        {
          "internalType": "bool",
          "name": "",
          "type": "bool"
        }
      ],
      "stateMutability": "view",
      "type": "function"
    },
    {
      "inputs": [],
      "name": "totalContribution",
      "outputs": [
        {
          "internalType": "uint256",
          "name": "",
          "type": "uint256"
        }
      ],
      "stateMutability": "view",
      "type": "function"
    },
    {
      "inputs": [],
      "name": "totalContributors",
      "outputs": [
        {
          "internalType": "uint256",
          "name": "",
          "type": "uint256"
        }
      ],
      "stateMutability": "view",
      "type": "function"
    },
    {
      "inputs": [
        {
          "internalType": "address",
          "name": "",
          "type": "address"
        },
        {
          "internalType": "uint256",
          "name": "",
          "type": "uint256"
        }
      ],
      "name": "voteHolder",
      "outputs": [
        {
          "internalType": "bool",
          "name": "",
          "type": "bool"
        }
      ],
      "stateMutability": "view",
      "type": "function"
    },
    {
      "stateMutability": "payable",
      "type": "receive"
    },
    {
      "inputs": [
        {
          "internalType": "uint256",
          "name": "amount",
          "type": "uint256"
        }
      ],
      "name": "stakeGovernor",
      "outputs": [],
      "stateMutability": "payable",
      "type": "function"
    },
    {
      "inputs": [
        {
          "internalType": "uint256",
          "name": "amount",
          "type": "uint256"
        }
      ],
      "name": "contribute",
      "outputs": [],
      "stateMutability": "payable",
      "type": "function"
    },
    {
      "inputs": [
        {
          "internalType": "string",
          "name": "description",
          "type": "string"
        },
        {
          "internalType": "address",
          "name": "charityAddress",
          "type": "address"
        },
        {
          "internalType": "uint256",
          "name": "amount",
          "type": "uint256"
        }
      ],
      "name": "createProposal",
      "outputs": [],
      "stateMutability": "nonpayable",
      "type": "function"
    },
    {
      "inputs": [
        {
          "internalType": "uint256",
          "name": "proposalId",
          "type": "uint256"
        },
        {
          "internalType": "bool",
          "name": "supportProposal",
          "type": "bool"
        }
      ],
      "name": "voteProposal",
      "outputs": [],
      "stateMutability": "nonpayable",
      "type": "function"
    },
    {
      "inputs": [
        {
          "internalType": "uint256",
          "name": "proposalId",
          "type": "uint256"
        }
      ],
      "name": "finishProposal",
      "outputs": [],
      "stateMutability": "nonpayable",
      "type": "function"
    },
    {
      "inputs": [],
      "name": "getProposals",
      "outputs": [
        {
          "components": [
            {
              "internalType": "uint256",
              "name": "id",
              "type": "uint256"
            },
            {
              "internalType": "uint256",
              "name": "amount",
              "type": "uint256"
            },
            {
              "internalType": "uint256",
              "name": "livePeriod",
              "type": "uint256"
            },
            {
              "internalType": "uint256",
              "name": "votesFor",
              "type": "uint256"
            },
            {
              "internalType": "uint256",
              "name": "countVotesFor",
              "type": "uint256"
            },
            {
              "internalType": "uint256",
              "name": "votesAgainst",
              "type": "uint256"
            },
            {
              "internalType": "uint256",
              "name": "countVotesAgainst",
              "type": "uint256"
            },
            {
              "internalType": "uint256",
              "name": "totalVoted",
              "type": "uint256"
            },
            {
              "internalType": "string",
              "name": "description",
              "type": "string"
            },
            {
              "internalType": "address payable",
              "name": "charityAddress",
              "type": "address"
            },
            {
              "internalType": "address",
              "name": "proposer",
              "type": "address"
            },
            {
              "internalType": "address",
              "name": "governor",
              "type": "address"
            },
            {
              "internalType": "bool",
              "name": "finished",
              "type": "bool"
            },
            {
              "internalType": "bool",
              "name": "votingPassed",
              "type": "bool"
            }
          ],
          "internalType": "struct DAO.CharityProposal[]",
          "name": "props",
          "type": "tuple[]"
        }
      ],
      "stateMutability": "view",
      "type": "function"
    },
    {
      "inputs": [
        {
          "internalType": "uint256",
          "name": "proposalId",
          "type": "uint256"
        }
      ],
      "name": "getProposal",
      "outputs": [
        {
          "components": [
            {
              "internalType": "uint256",
              "name": "id",
              "type": "uint256"
            },
            {
              "internalType": "uint256",
              "name": "amount",
              "type": "uint256"
            },
            {
              "internalType": "uint256",
              "name": "livePeriod",
              "type": "uint256"
            },
            {
              "internalType": "uint256",
              "name": "votesFor",
              "type": "uint256"
            },
            {
              "internalType": "uint256",
              "name": "countVotesFor",
              "type": "uint256"
            },
            {
              "internalType": "uint256",
              "name": "votesAgainst",
              "type": "uint256"
            },
            {
              "internalType": "uint256",
              "name": "countVotesAgainst",
              "type": "uint256"
            },
            {
              "internalType": "uint256",
              "name": "totalVoted",
              "type": "uint256"
            },
            {
              "internalType": "string",
              "name": "description",
              "type": "string"
            },
            {
              "internalType": "address payable",
              "name": "charityAddress",
              "type": "address"
            },
            {
              "internalType": "address",
              "name": "proposer",
              "type": "address"
            },
            {
              "internalType": "address",
              "name": "governor",
              "type": "address"
            },
            {
              "internalType": "bool",
              "name": "finished",
              "type": "bool"
            },
            {
              "internalType": "bool",
              "name": "votingPassed",
              "type": "bool"
            }
          ],
          "internalType": "struct DAO.CharityProposal",
          "name": "",
          "type": "tuple"
        }
      ],
      "stateMutability": "view",
      "type": "function"
    },
    {
      "inputs": [
        {
          "internalType": "address",
          "name": "user",
          "type": "address"
        }
      ],
      "name": "isContributor",
      "outputs": [
        {
          "internalType": "bool",
          "name": "",
          "type": "bool"
        }
      ],
      "stateMutability": "view",
      "type": "function"
    },
    {
      "inputs": [
        {
          "internalType": "address",
          "name": "user",
          "type": "address"
        },
        {
          "internalType": "uint256",
          "name": "proposalId",
          "type": "uint256"
        }
      ],
      "name": "hasVoted",
      "outputs": [
        {
          "internalType": "bool",
          "name": "",
          "type": "bool"
        }
      ],
      "stateMutability": "view",
      "type": "function"
    },
    {
      "inputs": [
        {
          "internalType": "address",
          "name": "user",
          "type": "address"
        }
      ],
      "name": "getContributionPercentageX100",
      "outputs": [
        {
          "internalType": "uint256",
          "name": "",
          "type": "uint256"
        }
      ],
      "stateMutability": "view",
      "type": "function"
    }
  ],
  "bytecode": "0x60806040526042600960006101000a81548160ff021916908360ff160217905550600a600960016101000a81548160ff021916908360ff1602179055506021600960026101000a81548160ff021916908360ff16021790555034801561006457600080fd5b506136fd806100746000396000f3fe6080604052600436106101bb5760003560e01c806391d14854116100ec578063c7f758a81161008a578063d547741f11610064578063d547741f14610628578063e9d5bfe514610651578063f251fc8c1461068e578063f6fe877a146106b9576101c5565b8063c7f758a814610595578063cb5cdf41146105d2578063ccc57490146105fd576101c5565b8063ab2f0e51116100c6578063ab2f0e5114610509578063bcfb9b6114610534578063bf0955f81461055d578063c1cbbca714610579576101c5565b806391d1485414610476578063a217fddf146104b3578063aa6b17b1146104de576101c5565b8063425458251161015957806362564c481161013357806362564c48146103ba5780638101b52e146103e5578063831c43ac14610422578063837422f91461044b576101c5565b8063425458251461032757806357b4d18e146103645780635f5702531461038f576101c5565b8063248a9ca311610195578063248a9ca31461026f57806327393278146102ac5780632f2ff15d146102d557806336568abe146102fe576101c5565b806301ffc9a7146101ca5780630dcf4b8f146102075780631d0d35f514610232576101c5565b366101c557600080fd5b600080fd5b3480156101d657600080fd5b506101f160048036038101906101ec9190612425565b6106e4565b6040516101fe919061246d565b60405180910390f35b34801561021357600080fd5b5061021c61075e565b60405161022991906124a1565b60405180910390f35b34801561023e57600080fd5b506102596004803603810190610254919061251a565b610764565b604051610266919061246d565b60405180910390f35b34801561027b57600080fd5b506102966004803603810190610291919061257d565b6107c0565b6040516102a391906125b9565b60405180910390f35b3480156102b857600080fd5b506102d360048036038101906102ce9190612600565b6107df565b005b3480156102e157600080fd5b506102fc60048036038101906102f7919061262d565b610c4b565b005b34801561030a57600080fd5b506103256004803603810190610320919061262d565b610c6c565b005b34801561033357600080fd5b5061034e6004803603810190610349919061266d565b610cef565b60405161035b919061246d565b60405180910390f35b34801561037057600080fd5b50610379610d57565b60405161038691906124a1565b60405180910390f35b34801561039b57600080fd5b506103a4610d5d565b6040516103b191906124a1565b60405180910390f35b3480156103c657600080fd5b506103cf610d63565b6040516103dc9190612984565b60405180910390f35b3480156103f157600080fd5b5061040c6004803603810190610407919061266d565b611038565b604051610419919061246d565b60405180910390f35b34801561042e57600080fd5b5061044960048036038101906104449190612a0b565b611067565b005b34801561045757600080fd5b506104606112c4565b60405161046d91906124a1565b60405180910390f35b34801561048257600080fd5b5061049d6004803603810190610498919061262d565b6112ca565b6040516104aa919061246d565b60405180910390f35b3480156104bf57600080fd5b506104c8611334565b6040516104d591906125b9565b60405180910390f35b3480156104ea57600080fd5b506104f361133b565b60405161050091906124a1565b60405180910390f35b34801561051557600080fd5b5061051e611341565b60405161052b91906124a1565b60405180910390f35b34801561054057600080fd5b5061055b60048036038101906105569190612aab565b611347565b005b61057760048036038101906105729190612600565b6116ba565b005b610593600480360381019061058e9190612600565b611881565b005b3480156105a157600080fd5b506105bc60048036038101906105b79190612600565b611a32565b6040516105c99190612c19565b60405180910390f35b3480156105de57600080fd5b506105e7611c7a565b6040516105f491906124a1565b60405180910390f35b34801561060957600080fd5b50610612611c80565b60405161061f91906125b9565b60405180910390f35b34801561063457600080fd5b5061064f600480360381019061064a919061262d565b611ca4565b005b34801561065d57600080fd5b506106786004803603810190610673919061251a565b611cc5565b60405161068591906124a1565b60405180910390f35b34801561069a57600080fd5b506106a3611d32565b6040516106b091906124a1565b60405180910390f35b3480156106c557600080fd5b506106ce611d38565b6040516106db91906124a1565b60405180910390f35b60007f7965db0b000000000000000000000000000000000000000000000000000000007bffffffffffffffffffffffffffffffffffffffffffffffffffffffff1916827bffffffffffffffffffffffffffffffffffffffffffffffffffffffff19161480610757575061075682611d3d565b5b9050919050565b60055481565b600080600c60008473ffffffffffffffffffffffffffffffffffffffff1673ffffffffffffffffffffffffffffffffffffffff1681526020019081526020016000205411156107b657600190506107bb565b600090505b919050565b6000806000838152602001908152602001600020600101549050919050565b806000600b600083815260200190815260200160002090504281600201541061083d576040517f08c379a000000000000000000000000000000000000000000000000000000000815260040161083490612c98565b60405180910390fd5b80600b0160149054906101000a900460ff161561088f576040517f08c379a000000000000000000000000000000000000000000000000000000000815260040161088690612d04565b60405180910390fd5b6040518060600160405280602c8152602001613646602c91396108d27f1a6838efa4183e08fe3607359d1259272af9d4716f65e1a7b5921f78fd5a3c6a336112ca565b8190610914576040517f08c379a000000000000000000000000000000000000000000000000000000000815260040161090b9190612d5d565b60405180910390fd5b506000600b600086815260200190815260200160002090506000816005015482600301541180156109735750600960009054906101000a900460ff1660ff16600554606484600301546109679190612dae565b6109719190612e37565b115b806109bf5750816006015482600401541180156109be5750600960029054906101000a900460ff1660ff16600654606484600401546109b29190612dae565b6109bc9190612e37565b115b5b15610ac1578160090160009054906101000a900473ffffffffffffffffffffffffffffffffffffffff1673ffffffffffffffffffffffffffffffffffffffff16867fa88c7d9be431a25f12fc380c50738a5aecc2d2415bc734416cb02a8bb04a5a3a8460010154604051610a3391906124a1565b60405180910390a38160090160009054906101000a900473ffffffffffffffffffffffffffffffffffffffff1673ffffffffffffffffffffffffffffffffffffffff16867fbc764f54747b510d1e265b3e5dd7dc99c81e668c7a4e232ea8c0df35402a222584600101546001604051610aad929190612e68565b60405180910390a381600101549050610b38565b8160090160009054906101000a900473ffffffffffffffffffffffffffffffffffffffff1673ffffffffffffffffffffffffffffffffffffffff16867fbc764f54747b510d1e265b3e5dd7dc99c81e668c7a4e232ea8c0df35402a2225600080604051610b2f929190612ed6565b60405180910390a35b816001015460076000828254610b4e9190612eff565b92505081905550600182600b0160146101000a81548160ff0219169083151502179055503382600b0160006101000a81548173ffffffffffffffffffffffffffffffffffffffff021916908373ffffffffffffffffffffffffffffffffffffffff1602179055506000811115610c43578160090160009054906101000a900473ffffffffffffffffffffffffffffffffffffffff1673ffffffffffffffffffffffffffffffffffffffff166108fc829081150290604051600060405180830381858888f19350505050158015610c28573d6000803e3d6000fd5b508060046000828254610c3b9190612eff565b925050819055505b505050505050565b610c54826107c0565b610c5d81611da7565b610c678383611dbb565b505050565b610c74611e9b565b73ffffffffffffffffffffffffffffffffffffffff168173ffffffffffffffffffffffffffffffffffffffff1614610ce1576040517f08c379a0000000000000000000000000000000000000000000000000000000008152600401610cd890612fa5565b60405180910390fd5b610ceb8282611ea3565b5050565b6000600e60008473ffffffffffffffffffffffffffffffffffffffff1673ffffffffffffffffffffffffffffffffffffffff168152602001908152602001600020600083815260200190815260200160002060009054906101000a900460ff16905092915050565b60075481565b60085481565b606060085467ffffffffffffffff811115610d8157610d80612fc5565b5b604051908082528060200260200182016040528015610dba57816020015b610da761226b565b815260200190600190039081610d9f5790505b50905060005b60085481101561103457600b6000828152602001908152602001600020604051806101c00160405290816000820154815260200160018201548152602001600282015481526020016003820154815260200160048201548152602001600582015481526020016006820154815260200160078201548152602001600882018054610e4990613023565b80601f0160208091040260200160405190810160405280929190818152602001828054610e7590613023565b8015610ec25780601f10610e9757610100808354040283529160200191610ec2565b820191906000526020600020905b815481529060010190602001808311610ea557829003601f168201915b505050505081526020016009820160009054906101000a900473ffffffffffffffffffffffffffffffffffffffff1673ffffffffffffffffffffffffffffffffffffffff1673ffffffffffffffffffffffffffffffffffffffff168152602001600a820160009054906101000a900473ffffffffffffffffffffffffffffffffffffffff1673ffffffffffffffffffffffffffffffffffffffff1673ffffffffffffffffffffffffffffffffffffffff168152602001600b820160009054906101000a900473ffffffffffffffffffffffffffffffffffffffff1673ffffffffffffffffffffffffffffffffffffffff1673ffffffffffffffffffffffffffffffffffffffff168152602001600b820160149054906101000a900460ff16151515158152602001600b820160159054906101000a900460ff16151515158152505082828151811061101657611015613054565b5b6020026020010181905250808061102c90613083565b915050610dc0565b5090565b600e6020528160005260406000206020528060005260406000206000915091509054906101000a900460ff1681565b604051806060016040528060318152602001613697603191396000600c60003373ffffffffffffffffffffffffffffffffffffffff1673ffffffffffffffffffffffffffffffffffffffff16815260200190815260200160002054118190611105576040517f08c379a00000000000000000000000000000000000000000000000000000000081526004016110fc9190612d5d565b60405180910390fd5b50816007546004546111179190612eff565b11611157576040517f08c379a000000000000000000000000000000000000000000000000000000000815260040161114e9061313d565b60405180910390fd5b60006002600081548092919061116c90613083565b9190505590506000600b600083815260200190815260200160002090508181600001819055503381600a0160006101000a81548173ffffffffffffffffffffffffffffffffffffffff021916908373ffffffffffffffffffffffffffffffffffffffff16021790555086868260080191906111e8929190612320565b50848160090160006101000a81548173ffffffffffffffffffffffffffffffffffffffff021916908373ffffffffffffffffffffffffffffffffffffffff1602179055508381600101819055506212750063ffffffff164261124a919061315d565b81600201819055508360076000828254611264919061315d565b925050819055503373ffffffffffffffffffffffffffffffffffffffff167f609b4e281bd96e064f81eddd1d559b479db56aa1ba14e155718d20ccc905ff7883866040516112b39291906131b3565b60405180910390a250505050505050565b60025481565b600080600084815260200190815260200160002060000160008373ffffffffffffffffffffffffffffffffffffffff1673ffffffffffffffffffffffffffffffffffffffff16815260200190815260200160002060009054906101000a900460ff16905092915050565b6000801b81565b60035481565b60045481565b604051806060016040528060258152602001613672602591396000600c60003373ffffffffffffffffffffffffffffffffffffffff1673ffffffffffffffffffffffffffffffffffffffff168152602001908152602001600020541181906113e5576040517f08c379a00000000000000000000000000000000000000000000000000000000081526004016113dc9190612d5d565b60405180910390fd5b50826000600b6000838152602001908152602001600020905060001515600e60003373ffffffffffffffffffffffffffffffffffffffff1673ffffffffffffffffffffffffffffffffffffffff168152602001908152602001600020600084815260200190815260200160002060009054906101000a900460ff161515146114a2576040517f08c379a000000000000000000000000000000000000000000000000000000000815260040161149990613228565b60405180910390fd5b428160020154116114e8576040517f08c379a00000000000000000000000000000000000000000000000000000000081526004016114df90613294565b60405180910390fd5b80600b0160149054906101000a900460ff161561153a576040517f08c379a000000000000000000000000000000000000000000000000000000000815260040161153190612d04565b60405180910390fd5b6000600b600087815260200190815260200160002090506000600c60003373ffffffffffffffffffffffffffffffffffffffff1673ffffffffffffffffffffffffffffffffffffffff16815260200190815260200160002054905060006064600960019054906101000a900460ff1660ff166005546115b99190612dae565b6115c39190612e37565b9050808211156115d1578091505b861561161157818360030160008282546115eb919061315d565b9250508190555082600401600081548092919061160790613083565b9190505550611647565b81836005016000828254611625919061315d565b9250508190555082600601600081548092919061164190613083565b91905055505b6001600e60003373ffffffffffffffffffffffffffffffffffffffff1673ffffffffffffffffffffffffffffffffffffffff16815260200190815260200160002060008a815260200190815260200160002060006101000a81548160ff0219169083151502179055505050505050505050565b6040518060400160405280601781526020017f416c72656164792074686520676f7665726e6f7221212100000000000000000081525061171a7f1a6838efa4183e08fe3607359d1259272af9d4716f65e1a7b5921f78fd5a3c6a336112ca565b15819061175d576040517f08c379a00000000000000000000000000000000000000000000000000000000081526004016117549190612d5d565b60405180910390fd5b508134146117a0576040517f08c379a000000000000000000000000000000000000000000000000000000000815260040161179790613326565b60405180910390fd5b670de0b6b3a7640000600a6117b59190612dae565b82116117f6576040517f08c379a00000000000000000000000000000000000000000000000000000000081526004016117ed906133b8565b60405180910390fd5b81600d60003373ffffffffffffffffffffffffffffffffffffffff1673ffffffffffffffffffffffffffffffffffffffff16815260200190815260200160002081905550816003600082825461184c919061315d565b9250508190555061187d7f1a6838efa4183e08fe3607359d1259272af9d4716f65e1a7b5921f78fd5a3c6a33611f84565b5050565b8034146118c3576040517f08c379a00000000000000000000000000000000000000000000000000000000081526004016118ba90613326565b60405180910390fd5b662386f26fc10000341161190c576040517f08c379a00000000000000000000000000000000000000000000000000000000081526004016119039061344a565b60405180910390fd5b806004600082825461191e919061315d565b925050819055506000600c60003373ffffffffffffffffffffffffffffffffffffffff1673ffffffffffffffffffffffffffffffffffffffff16815260200190815260200160002054036119875760016006600082825461197f919061315d565b925050819055505b80600c60003373ffffffffffffffffffffffffffffffffffffffff1673ffffffffffffffffffffffffffffffffffffffff16815260200190815260200160002060008282546119d6919061315d565b9250508190555080600560008282546119ef919061315d565b925050819055507f1bb460ccaaf70fbacfec17a376f8acbd278c1405590ffcc8ebe4b88daf4f64ad3334604051611a27929190613479565b60405180910390a150565b611a3a61226b565b600b6000838152602001908152602001600020604051806101c00160405290816000820154815260200160018201548152602001600282015481526020016003820154815260200160048201548152602001600582015481526020016006820154815260200160078201548152602001600882018054611ab990613023565b80601f0160208091040260200160405190810160405280929190818152602001828054611ae590613023565b8015611b325780601f10611b0757610100808354040283529160200191611b32565b820191906000526020600020905b815481529060010190602001808311611b1557829003601f168201915b505050505081526020016009820160009054906101000a900473ffffffffffffffffffffffffffffffffffffffff1673ffffffffffffffffffffffffffffffffffffffff1673ffffffffffffffffffffffffffffffffffffffff168152602001600a820160009054906101000a900473ffffffffffffffffffffffffffffffffffffffff1673ffffffffffffffffffffffffffffffffffffffff1673ffffffffffffffffffffffffffffffffffffffff168152602001600b820160009054906101000a900473ffffffffffffffffffffffffffffffffffffffff1673ffffffffffffffffffffffffffffffffffffffff1673ffffffffffffffffffffffffffffffffffffffff168152602001600b820160149054906101000a900460ff16151515158152602001600b820160159054906101000a900460ff1615151515815250509050919050565b60015481565b7f1a6838efa4183e08fe3607359d1259272af9d4716f65e1a7b5921f78fd5a3c6a81565b611cad826107c0565b611cb681611da7565b611cc08383611ea3565b505050565b6000600554606480600c60008673ffffffffffffffffffffffffffffffffffffffff1673ffffffffffffffffffffffffffffffffffffffff16815260200190815260200160002054611d179190612dae565b611d219190612dae565b611d2b9190612e37565b9050919050565b60065481565b600a81565b60007f01ffc9a7000000000000000000000000000000000000000000000000000000007bffffffffffffffffffffffffffffffffffffffffffffffffffffffff1916827bffffffffffffffffffffffffffffffffffffffffffffffffffffffff1916149050919050565b611db881611db3611e9b565b611f92565b50565b611dc582826112ca565b611e9757600160008084815260200190815260200160002060000160008373ffffffffffffffffffffffffffffffffffffffff1673ffffffffffffffffffffffffffffffffffffffff16815260200190815260200160002060006101000a81548160ff021916908315150217905550611e3c611e9b565b73ffffffffffffffffffffffffffffffffffffffff168173ffffffffffffffffffffffffffffffffffffffff16837f2f8788117e7eff1d82e926ec794901d17c78024a50270940304540a733656f0d60405160405180910390a45b5050565b600033905090565b611ead82826112ca565b15611f8057600080600084815260200190815260200160002060000160008373ffffffffffffffffffffffffffffffffffffffff1673ffffffffffffffffffffffffffffffffffffffff16815260200190815260200160002060006101000a81548160ff021916908315150217905550611f25611e9b565b73ffffffffffffffffffffffffffffffffffffffff168173ffffffffffffffffffffffffffffffffffffffff16837ff6391f5c32d9c69d2a47ea670b442974b53935d1edc7fd64eb21e047a839171b60405160405180910390a45b5050565b611f8e8282611dbb565b5050565b611f9c82826112ca565b61202b57611fc18173ffffffffffffffffffffffffffffffffffffffff16601461202f565b611fcf8360001c602061202f565b604051602001611fe0929190613576565b6040516020818303038152906040526040517f08c379a00000000000000000000000000000000000000000000000000000000081526004016120229190612d5d565b60405180910390fd5b5050565b6060600060028360026120429190612dae565b61204c919061315d565b67ffffffffffffffff81111561206557612064612fc5565b5b6040519080825280601f01601f1916602001820160405280156120975781602001600182028036833780820191505090505b5090507f3000000000000000000000000000000000000000000000000000000000000000816000815181106120cf576120ce613054565b5b60200101907effffffffffffffffffffffffffffffffffffffffffffffffffffffffffffff1916908160001a9053507f78000000000000000000000000000000000000000000000000000000000000008160018151811061213357612132613054565b5b60200101907effffffffffffffffffffffffffffffffffffffffffffffffffffffffffffff1916908160001a905350600060018460026121739190612dae565b61217d919061315d565b90505b600181111561221d577f3031323334353637383961626364656600000000000000000000000000000000600f8616601081106121bf576121be613054565b5b1a60f81b8282815181106121d6576121d5613054565b5b60200101907effffffffffffffffffffffffffffffffffffffffffffffffffffffffffffff1916908160001a905350600485901c945080612216906135b0565b9050612180565b5060008414612261576040517f08c379a000000000000000000000000000000000000000000000000000000000815260040161225890613625565b60405180910390fd5b8091505092915050565b604051806101c00160405280600081526020016000815260200160008152602001600081526020016000815260200160008152602001600081526020016000815260200160608152602001600073ffffffffffffffffffffffffffffffffffffffff168152602001600073ffffffffffffffffffffffffffffffffffffffff168152602001600073ffffffffffffffffffffffffffffffffffffffff1681526020016000151581526020016000151581525090565b82805461232c90613023565b90600052602060002090601f01602090048101928261234e5760008555612395565b82601f1061236757803560ff1916838001178555612395565b82800160010185558215612395579182015b82811115612394578235825591602001919060010190612379565b5b5090506123a291906123a6565b5090565b5b808211156123bf5760008160009055506001016123a7565b5090565b600080fd5b600080fd5b60007fffffffff0000000000000000000000000000000000000000000000000000000082169050919050565b612402816123cd565b811461240d57600080fd5b50565b60008135905061241f816123f9565b92915050565b60006020828403121561243b5761243a6123c3565b5b600061244984828501612410565b91505092915050565b60008115159050919050565b61246781612452565b82525050565b6000602082019050612482600083018461245e565b92915050565b6000819050919050565b61249b81612488565b82525050565b60006020820190506124b66000830184612492565b92915050565b600073ffffffffffffffffffffffffffffffffffffffff82169050919050565b60006124e7826124bc565b9050919050565b6124f7816124dc565b811461250257600080fd5b50565b600081359050612514816124ee565b92915050565b6000602082840312156125305761252f6123c3565b5b600061253e84828501612505565b91505092915050565b6000819050919050565b61255a81612547565b811461256557600080fd5b50565b60008135905061257781612551565b92915050565b600060208284031215612593576125926123c3565b5b60006125a184828501612568565b91505092915050565b6125b381612547565b82525050565b60006020820190506125ce60008301846125aa565b92915050565b6125dd81612488565b81146125e857600080fd5b50565b6000813590506125fa816125d4565b92915050565b600060208284031215612616576126156123c3565b5b6000612624848285016125eb565b91505092915050565b60008060408385031215612644576126436123c3565b5b600061265285828601612568565b925050602061266385828601612505565b9150509250929050565b60008060408385031215612684576126836123c3565b5b600061269285828601612505565b92505060206126a3858286016125eb565b9150509250929050565b600081519050919050565b600082825260208201905092915050565b6000819050602082019050919050565b6126e281612488565b82525050565b600081519050919050565b600082825260208201905092915050565b60005b83811015612722578082015181840152602081019050612707565b83811115612731576000848401525b50505050565b6000601f19601f8301169050919050565b6000612753826126e8565b61275d81856126f3565b935061276d818560208601612704565b61277681612737565b840191505092915050565b600061278c826124bc565b9050919050565b61279c81612781565b82525050565b6127ab816124dc565b82525050565b6127ba81612452565b82525050565b60006101c0830160008301516127d960008601826126d9565b5060208301516127ec60208601826126d9565b5060408301516127ff60408601826126d9565b50606083015161281260608601826126d9565b50608083015161282560808601826126d9565b5060a083015161283860a08601826126d9565b5060c083015161284b60c08601826126d9565b5060e083015161285e60e08601826126d9565b506101008301518482036101008601526128788282612748565b91505061012083015161288f610120860182612793565b506101408301516128a46101408601826127a2565b506101608301516128b96101608601826127a2565b506101808301516128ce6101808601826127b1565b506101a08301516128e36101a08601826127b1565b508091505092915050565b60006128fa83836127c0565b905092915050565b6000602082019050919050565b600061291a826126ad565b61292481856126b8565b935083602082028501612936856126c9565b8060005b85811015612972578484038952815161295385826128ee565b945061295e83612902565b925060208a0199505060018101905061293a565b50829750879550505050505092915050565b6000602082019050818103600083015261299e818461290f565b905092915050565b600080fd5b600080fd5b600080fd5b60008083601f8401126129cb576129ca6129a6565b5b8235905067ffffffffffffffff8111156129e8576129e76129ab565b5b602083019150836001820283011115612a0457612a036129b0565b5b9250929050565b60008060008060608587031215612a2557612a246123c3565b5b600085013567ffffffffffffffff811115612a4357612a426123c8565b5b612a4f878288016129b5565b94509450506020612a6287828801612505565b9250506040612a73878288016125eb565b91505092959194509250565b612a8881612452565b8114612a9357600080fd5b50565b600081359050612aa581612a7f565b92915050565b60008060408385031215612ac257612ac16123c3565b5b6000612ad0858286016125eb565b9250506020612ae185828601612a96565b9150509250929050565b60006101c083016000830151612b0460008601826126d9565b506020830151612b1760208601826126d9565b506040830151612b2a60408601826126d9565b506060830151612b3d60608601826126d9565b506080830151612b5060808601826126d9565b5060a0830151612b6360a08601826126d9565b5060c0830151612b7660c08601826126d9565b5060e0830151612b8960e08601826126d9565b50610100830151848203610100860152612ba38282612748565b915050610120830151612bba610120860182612793565b50610140830151612bcf6101408601826127a2565b50610160830151612be46101608601826127a2565b50610180830151612bf96101808601826127b1565b506101a0830151612c0e6101a08601826127b1565b508091505092915050565b60006020820190508181036000830152612c338184612aeb565b905092915050565b600082825260208201905092915050565b7f4e6f742066696e69736820796574000000000000000000000000000000000000600082015250565b6000612c82600e83612c3b565b9150612c8d82612c4c565b602082019050919050565b60006020820190508181036000830152612cb181612c75565b9050919050565b7f416c72656164792066696e697368656400000000000000000000000000000000600082015250565b6000612cee601083612c3b565b9150612cf982612cb8565b602082019050919050565b60006020820190508181036000830152612d1d81612ce1565b9050919050565b6000612d2f826126e8565b612d398185612c3b565b9350612d49818560208601612704565b612d5281612737565b840191505092915050565b60006020820190508181036000830152612d778184612d24565b905092915050565b7f4e487b7100000000000000000000000000000000000000000000000000000000600052601160045260246000fd5b6000612db982612488565b9150612dc483612488565b9250817fffffffffffffffffffffffffffffffffffffffffffffffffffffffffffffffff0483118215151615612dfd57612dfc612d7f565b5b828202905092915050565b7f4e487b7100000000000000000000000000000000000000000000000000000000600052601260045260246000fd5b6000612e4282612488565b9150612e4d83612488565b925082612e5d57612e5c612e08565b5b828204905092915050565b6000604082019050612e7d6000830185612492565b612e8a602083018461245e565b9392505050565b6000819050919050565b6000819050919050565b6000612ec0612ebb612eb684612e91565b612e9b565b612488565b9050919050565b612ed081612ea5565b82525050565b6000604082019050612eeb6000830185612ec7565b612ef8602083018461245e565b9392505050565b6000612f0a82612488565b9150612f1583612488565b925082821015612f2857612f27612d7f565b5b828203905092915050565b7f416363657373436f6e74726f6c3a2063616e206f6e6c792072656e6f756e636560008201527f20726f6c657320666f722073656c660000000000000000000000000000000000602082015250565b6000612f8f602f83612c3b565b9150612f9a82612f33565b604082019050919050565b60006020820190508181036000830152612fbe81612f82565b9050919050565b7f4e487b7100000000000000000000000000000000000000000000000000000000600052604160045260246000fd5b7f4e487b7100000000000000000000000000000000000000000000000000000000600052602260045260246000fd5b6000600282049050600182168061303b57607f821691505b60208210810361304e5761304d612ff4565b5b50919050565b7f4e487b7100000000000000000000000000000000000000000000000000000000600052603260045260246000fd5b600061308e82612488565b91507fffffffffffffffffffffffffffffffffffffffffffffffffffffffffffffffff82036130c0576130bf612d7f565b5b600182019050919050565b7f636f756c64206e6f742063726561746520616e7920636861726974792070726f60008201527f706f73616c2064756520746f20696e656666696369656e742062616c616e6365602082015250565b6000613127604083612c3b565b9150613132826130cb565b604082019050919050565b600060208201905081810360008301526131568161311a565b9050919050565b600061316882612488565b915061317383612488565b9250827fffffffffffffffffffffffffffffffffffffffffffffffffffffffffffffffff038211156131a8576131a7612d7f565b5b828201905092915050565b60006040820190506131c86000830185612492565b6131d56020830184612492565b9392505050565b7f416c726561647920766f74656400000000000000000000000000000000000000600082015250565b6000613212600d83612c3b565b915061321d826131dc565b602082019050919050565b6000602082019050818103600083015261324181613205565b9050919050565b7f566f74696e6720456e6465640000000000000000000000000000000000000000600082015250565b600061327e600c83612c3b565b915061328982613248565b602082019050919050565b600060208201905081810360008301526132ad81613271565b9050919050565b7f4e617469766520746f6b656e2073656e64206e6f7420657175616c20746f206160008201527f6d6f756e74000000000000000000000000000000000000000000000000000000602082015250565b6000613310602583612c3b565b915061331b826132b4565b604082019050919050565b6000602082019050818103600083015261333f81613303565b9050919050565b7f5374616b656420746f6b656e2068617320746f206265206d6f7265207468616e60008201527f206d696e20616d6f756e74000000000000000000000000000000000000000000602082015250565b60006133a2602b83612c3b565b91506133ad82613346565b604082019050919050565b600060208201905081810360008301526133d181613395565b9050919050565b7f4e65656420746f20636f6e74726962757465206d6f7265207468616e20302e3060008201527f3100000000000000000000000000000000000000000000000000000000000000602082015250565b6000613434602183612c3b565b915061343f826133d8565b604082019050919050565b6000602082019050818103600083015261346381613427565b9050919050565b613473816124dc565b82525050565b600060408201905061348e600083018561346a565b61349b6020830184612492565b9392505050565b600081905092915050565b7f416363657373436f6e74726f6c3a206163636f756e7420000000000000000000600082015250565b60006134e36017836134a2565b91506134ee826134ad565b601782019050919050565b6000613504826126e8565b61350e81856134a2565b935061351e818560208601612704565b80840191505092915050565b7f206973206d697373696e6720726f6c6520000000000000000000000000000000600082015250565b60006135606011836134a2565b915061356b8261352a565b601182019050919050565b6000613581826134d6565b915061358d82856134f9565b915061359882613553565b91506135a482846134f9565b91508190509392505050565b60006135bb82612488565b9150600082036135ce576135cd612d7f565b5b600182039050919050565b7f537472696e67733a20686578206c656e67746820696e73756666696369656e74600082015250565b600061360f602083612c3b565b915061361a826135d9565b602082019050919050565b6000602082019050818103600083015261363e81613602565b905091905056fe4f6e6c7920676f6e7665726e6f72732061726520616c6c6f77656420746f206d616b65207061796d656e74734f6e6c7920636f6e7472696275746f72732061726520616c6c6f77656420746f20766f74654f6e6c7920636f6e7472696275746f72732061726520616c6c6f77656420746f206372656174652070726f706f73616c73a2646970667358221220b8b3cc6a26ca5d5af8474235e80705bc03be31dd9ca6e94fa8302bfce4d51a9b64736f6c634300080d0033",
  "immutableReferences": {},
  "source": "// SPDX-License-Identifier: MIT\npragma solidity 0.8.13;\n\nimport \"@openzeppelin/contracts/access/AccessControl.sol\";\n\n// Since DAOs smart contract need to be unchangable then i dont use upgradable proxy here\n// Normal DAO that support charity by transfer native EVM token to address\n// Voting power based on the native amount the contributer given the smart contract\ncontract DAO is AccessControl {\n\n    bytes32 public constant GOVERNOR_ROLE = keccak256(\"GOVERNOR\");\n    uint256 public constant minAmountGovernor = 10; // Need to stake more than 10 native to become governor\n    uint32 constant minimumVotingPeriod = 2 weeks;\n\n    uint256 public governanceProposalNonce;\n    uint256 public charityProposalNonce;\n    uint256 public governanceStaked;\n    uint256 public availableBalance;\n    uint256 public totalContribution;\n    uint256 public totalContributors;\n    uint256 public pendingBalance;\n    uint256 public numOfProposals;\n    \n    uint8 private theshold = 66; // Need to reach this percentage of aggrement ending vote automatically\n    uint8 private maxSingleVotePercentage = 10; // if they contributes morethan 10% of the totalContribution their vote is worth at max 10 percent\n    uint8 private minimumNeedToReachWhenEnding = 33; // Minimum need to reach when voting period end\n\n    // For governance election\n    struct GovernanceProposal{\n        uint256 id;\n        address candidateAddress;\n        uint256 livePeriod;\n        uint256 votesFor;\n        uint256 countVotesFor;\n        uint256 votesAgainst;\n        uint256 countVotesAgainst;\n        string description;\n        bool finished;\n        address proposer;\n        bool votingPassed;\n    }\n\n    // For doing charity\n    struct CharityProposal {\n        uint256 id;\n        uint256 amount;\n        uint256 livePeriod;\n        uint256 votesFor;\n        uint256 countVotesFor;\n        uint256 votesAgainst;\n        uint256 countVotesAgainst;\n        uint256 totalVoted;\n        string description;\n        address payable charityAddress;\n        address proposer;\n        address governor;\n        bool finished;\n        bool votingPassed;\n    }\n    mapping(uint256 => GovernanceProposal) private governanceProposals;\n    mapping(uint256 => CharityProposal) private charityProposals;\n    mapping(address => uint256) private contributors;\n    mapping(address => uint256) private governors;\n\n    mapping(address => mapping(uint256 => bool)) public voteHolder;\n\n    \n    // // mapping(address => uint256) private stakeholders;\n    event ContributionReceived(address fromAddress, uint256 amount);\n    // event governorAdded(address governor, uint256 stakedAmount);\n\n    // // event addGovernanceProposal(address )\n    event NewCharityProposal(uint256 proposalId, address indexed proposer, uint256 amount);\n    event CharityPropsalFinish(\n        uint256 indexed proposalId,\n        address indexed receiverAddress,\n        uint256 amount,\n        bool votingPassed\n    );\n    event PropsalTransfered(\n        uint256 indexed proposalId,\n        address indexed receiverAddress,\n        uint256 amount\n    );\n    \n    modifier onlyGovernor(string memory message){\n        // require(hasR);\n        require(hasRole(GOVERNOR_ROLE, msg.sender), message);\n        _;\n    }\n    modifier notGovernor(string memory message){\n        // require(hasR);\n        require(!hasRole(GOVERNOR_ROLE, msg.sender), message);\n        _;\n    }\n\n    modifier votable(uint256 proposalId){\n        CharityProposal storage proposal = charityProposals[proposalId];\n        require(voteHolder[msg.sender][proposalId] == false, 'Already voted');\n        require(proposal.livePeriod > block.timestamp, \"Voting Ended\");\n        require(!proposal.finished, \"Already finished\");\n        _;\n    }\n    // modifier onlyStakeholder(string memory message) {\n    //     require(hasRole(STAKEHOLDER_ROLE, msg.sender), message);\n    //     _;\n    // }\n\n    modifier onlyContributor(string memory message) {\n        require(contributors[msg.sender] > 0, message);\n        _;\n    }\n\n    modifier canFinish(uint256 proposalId){\n        CharityProposal storage proposal = charityProposals[proposalId];\n        require(proposal.livePeriod < block.timestamp, \"Not finish yet\");\n        require(!proposal.finished, \"Already finished\");\n        _;\n    }\n\n    // throw when  receiving random ether\n    receive() external payable {\n        revert();\n    }\n    fallback() external payable{\n        revert();\n    }\n\n    // stake to become governor\n    function stakeGovernor(uint256 amount) \n    external payable\n    notGovernor(\"Already the governor!!!\")\n    {\n        require(msg.value == amount, \"Native token send not equal to amount\");\n        require(amount > minAmountGovernor * 10**18, \"Staked token has to be more than min amount\");\n        governors[msg.sender] = amount;\n        governanceStaked += amount;\n        _setupRole(GOVERNOR_ROLE, msg.sender);\n    }\n\n    function contribute(uint amount) external payable{\n        require(msg.value == amount, \"Native token send not equal to amount\");\n        require(msg.value > 10**16, \"Need to contribute more than 0.01\");\n        availableBalance += amount;\n        if(contributors[msg.sender] == 0){\n            totalContributors += 1;\n        }\n        contributors[msg.sender] += amount;\n        totalContribution += amount;\n        emit ContributionReceived(msg.sender, msg.value);\n\n    }\n\n\n    function createProposal(\n        string calldata description,\n        address charityAddress,\n        uint256 amount\n    )\n        external\n        onlyContributor(\"Only contributors are allowed to create proposals\")\n    {\n        require(availableBalance - pendingBalance > amount, \"could not create any charity proposal due to inefficient balance\");\n        uint256 proposalId = charityProposalNonce++;\n        CharityProposal storage proposal = charityProposals[proposalId];\n        proposal.id = proposalId;\n        proposal.proposer = payable(msg.sender);\n        proposal.description = description;\n        proposal.charityAddress = payable(charityAddress);\n        proposal.amount = amount;\n        proposal.livePeriod = block.timestamp + minimumVotingPeriod;\n\n        pendingBalance += amount;\n\n        emit NewCharityProposal(proposalId, msg.sender, amount);\n    }\n\n    function voteProposal(uint256 proposalId, bool supportProposal)\n        external\n        onlyContributor(\"Only contributors are allowed to vote\")\n        votable(proposalId)\n    {\n        CharityProposal storage proposal = charityProposals[proposalId];\n\n        uint256 voteValue = contributors[msg.sender];\n        uint256 maxValue = totalContribution * maxSingleVotePercentage / 100;\n        if(voteValue > maxValue){\n            voteValue = maxValue;\n        }\n\n        if (supportProposal){\n            proposal.votesFor += voteValue;\n            proposal.countVotesFor++;\n        }\n        else{\n            proposal.votesAgainst += voteValue;\n            proposal.countVotesAgainst++;\n        } \n\n        voteHolder[msg.sender][proposalId] = true;\n    }\n\n    \n\n    function finishProposal(uint256 proposalId)\n        external\n        canFinish(proposalId)\n        onlyGovernor(\"Only gonvernors are allowed to make payments\")\n    {   \n        // Finish if it has reached certain threshold or at the end end of the live period \n        CharityProposal storage proposal = charityProposals[proposalId];\n        uint256 valueTransfer = 0;\n        // Todo: update more secured algorithm\n        if( (proposal.votesFor > proposal.votesAgainst \n                && \n             proposal.votesFor * 100 / totalContribution > theshold)\n            ||\n            (proposal.countVotesFor > proposal.countVotesAgainst \n                &&\n             proposal.countVotesFor * 100 / totalContributors > minimumNeedToReachWhenEnding\n            )\n        ){\n            emit PropsalTransfered(proposalId, proposal.charityAddress, proposal.amount);\n            emit CharityPropsalFinish(proposalId, proposal.charityAddress, proposal.amount, true);\n            valueTransfer = proposal.amount;\n        }\n        else{\n            emit CharityPropsalFinish(proposalId, proposal.charityAddress, 0, false);\n        }\n        pendingBalance -= proposal.amount;\n\n        proposal.finished = true;\n        proposal.governor = msg.sender;\n\n        if(valueTransfer > 0){\n            proposal.charityAddress.transfer(valueTransfer);\n            availableBalance -= valueTransfer;\n        }\n    }\n\n    function getProposals()\n        public\n        view\n        returns (CharityProposal[] memory props)\n    {\n        props = new CharityProposal[](numOfProposals);\n\n        for (uint256 index = 0; index < numOfProposals; index++) {\n            props[index] = charityProposals[index];\n        }\n    }\n\n    function getProposal(uint256 proposalId)\n        public\n        view\n        returns (CharityProposal memory)\n    {\n        return charityProposals[proposalId];\n    }\n\n    function isContributor(address user) public view returns (bool){\n\n        if(contributors[user] > 0) return true;\n        return false;\n    }\n\n\n    function hasVoted(address user, uint256 proposalId) public view returns (bool){\n        return voteHolder[user][proposalId];\n    }\n\n    function getContributionPercentageX100(address user) public view returns (uint256){\n        // percentage * 100, example: 4% => return 400\n        return contributors[user]*100*100/totalContribution;\n    }\n\n    // Todo\n    // Func Un-stake proposal when governor want to withdraw\n    // func Revoke governor proposal when governor has been doing someing bad and give all staked to charity pool\n    // func temporary disable governor when subspisous\n    \n}",
  "sourcePath": "/home/sotatek/DaoNft/contracts/DAO_NFT.sol",
  "compiler": {
    "name": "solc",
    "version": "0.8.13+commit.abaa5c0e.Emscripten.clang"
  },
  "schemaVersion": "3.4.1",
  "updatedAt": "2022-04-30T17:04:13.315Z",
  "devdoc": {
    "kind": "dev",
    "methods": {
      "getRoleAdmin(bytes32)": {
        "details": "Returns the admin role that controls `role`. See {grantRole} and {revokeRole}. To change a role's admin, use {_setRoleAdmin}."
      },
      "grantRole(bytes32,address)": {
        "details": "Grants `role` to `account`. If `account` had not been already granted `role`, emits a {RoleGranted} event. Requirements: - the caller must have ``role``'s admin role."
      },
      "hasRole(bytes32,address)": {
        "details": "Returns `true` if `account` has been granted `role`."
      },
      "renounceRole(bytes32,address)": {
        "details": "Revokes `role` from the calling account. Roles are often managed via {grantRole} and {revokeRole}: this function's purpose is to provide a mechanism for accounts to lose their privileges if they are compromised (such as when a trusted device is misplaced). If the calling account had been revoked `role`, emits a {RoleRevoked} event. Requirements: - the caller must be `account`."
      },
      "revokeRole(bytes32,address)": {
        "details": "Revokes `role` from `account`. If `account` had been granted `role`, emits a {RoleRevoked} event. Requirements: - the caller must have ``role``'s admin role."
      },
      "supportsInterface(bytes4)": {
        "details": "See {IERC165-supportsInterface}."
      }
    },
    "version": 1
  },
  "userdoc": {
    "kind": "user",
    "methods": {},
    "version": 1
  }
}