{
  "contractName": "DAO_NFT",
  "abi": [
    {
      "inputs": [],
      "stateMutability": "nonpayable",
      "type": "constructor"
    },
    {
      "anonymous": false,
      "inputs": [
        {
          "indexed": true,
          "internalType": "uint256",
          "name": "proposalId",
          "type": "uint256"
        },
        {
          "indexed": true,
          "internalType": "address",
          "name": "receiverAddress",
          "type": "address"
        },
        {
          "indexed": false,
          "internalType": "uint256",
          "name": "amount",
          "type": "uint256"
        },
        {
          "indexed": false,
          "internalType": "bool",
          "name": "votingPassed",
          "type": "bool"
        }
      ],
      "name": "CharityPropsalFinish",
      "type": "event"
    },
    {
      "anonymous": false,
      "inputs": [
        {
          "indexed": false,
          "internalType": "address",
          "name": "fromAddress",
          "type": "address"
        },
        {
          "indexed": false,
          "internalType": "uint256",
          "name": "amount",
          "type": "uint256"
        }
      ],
      "name": "ContributionReceived",
      "type": "event"
    },
    {
      "anonymous": false,
      "inputs": [
        {
          "indexed": false,
          "internalType": "uint256",
          "name": "proposalId",
          "type": "uint256"
        },
        {
          "indexed": true,
          "internalType": "address",
          "name": "proposer",
          "type": "address"
        },
        {
          "indexed": false,
          "internalType": "uint256",
          "name": "amount",
          "type": "uint256"
        }
      ],
      "name": "NewCharityProposal",
      "type": "event"
    },
    {
      "anonymous": false,
      "inputs": [
        {
          "indexed": true,
          "internalType": "uint256",
          "name": "proposalId",
          "type": "uint256"
        },
        {
          "indexed": true,
          "internalType": "address",
          "name": "receiverAddress",
          "type": "address"
        },
        {
          "indexed": false,
          "internalType": "uint256",
          "name": "amount",
          "type": "uint256"
        }
      ],
      "name": "PropsalTransfered",
      "type": "event"
    },
    {
      "anonymous": false,
      "inputs": [
        {
          "indexed": true,
          "internalType": "bytes32",
          "name": "role",
          "type": "bytes32"
        },
        {
          "indexed": true,
          "internalType": "bytes32",
          "name": "previousAdminRole",
          "type": "bytes32"
        },
        {
          "indexed": true,
          "internalType": "bytes32",
          "name": "newAdminRole",
          "type": "bytes32"
        }
      ],
      "name": "RoleAdminChanged",
      "type": "event"
    },
    {
      "anonymous": false,
      "inputs": [
        {
          "indexed": true,
          "internalType": "bytes32",
          "name": "role",
          "type": "bytes32"
        },
        {
          "indexed": true,
          "internalType": "address",
          "name": "account",
          "type": "address"
        },
        {
          "indexed": true,
          "internalType": "address",
          "name": "sender",
          "type": "address"
        }
      ],
      "name": "RoleGranted",
      "type": "event"
    },
    {
      "anonymous": false,
      "inputs": [
        {
          "indexed": true,
          "internalType": "bytes32",
          "name": "role",
          "type": "bytes32"
        },
        {
          "indexed": true,
          "internalType": "address",
          "name": "account",
          "type": "address"
        },
        {
          "indexed": true,
          "internalType": "address",
          "name": "sender",
          "type": "address"
        }
      ],
      "name": "RoleRevoked",
      "type": "event"
    },
    {
      "stateMutability": "payable",
      "type": "fallback"
    },
    {
      "inputs": [],
      "name": "DEFAULT_ADMIN_ROLE",
      "outputs": [
        {
          "internalType": "bytes32",
          "name": "",
          "type": "bytes32"
        }
      ],
      "stateMutability": "view",
      "type": "function"
    },
    {
      "inputs": [],
      "name": "GOVERNOR_ROLE",
      "outputs": [
        {
          "internalType": "bytes32",
          "name": "",
          "type": "bytes32"
        }
      ],
      "stateMutability": "view",
      "type": "function"
    },
    {
      "inputs": [],
      "name": "VOTE_PROPOSAL_TYPEHASH",
      "outputs": [
        {
          "internalType": "bytes32",
          "name": "",
          "type": "bytes32"
        }
      ],
      "stateMutability": "view",
      "type": "function"
    },
    {
      "inputs": [],
      "name": "availableBalance",
      "outputs": [
        {
          "internalType": "uint256",
          "name": "",
          "type": "uint256"
        }
      ],
      "stateMutability": "view",
      "type": "function"
    },
    {
      "inputs": [],
      "name": "charityProposalNonce",
      "outputs": [
        {
          "internalType": "uint256",
          "name": "",
          "type": "uint256"
        }
      ],
      "stateMutability": "view",
      "type": "function"
    },
    {
      "inputs": [
        {
          "internalType": "bytes32",
          "name": "role",
          "type": "bytes32"
        }
      ],
      "name": "getRoleAdmin",
      "outputs": [
        {
          "internalType": "bytes32",
          "name": "",
          "type": "bytes32"
        }
      ],
      "stateMutability": "view",
      "type": "function"
    },
    {
      "inputs": [],
      "name": "governanceProposalNonce",
      "outputs": [
        {
          "internalType": "uint256",
          "name": "",
          "type": "uint256"
        }
      ],
      "stateMutability": "view",
      "type": "function"
    },
    {
      "inputs": [],
      "name": "governanceStaked",
      "outputs": [
        {
          "internalType": "uint256",
          "name": "",
          "type": "uint256"
        }
      ],
      "stateMutability": "view",
      "type": "function"
    },
    {
      "inputs": [
        {
          "internalType": "bytes32",
          "name": "role",
          "type": "bytes32"
        },
        {
          "internalType": "address",
          "name": "account",
          "type": "address"
        }
      ],
      "name": "grantRole",
      "outputs": [],
      "stateMutability": "nonpayable",
      "type": "function"
    },
    {
      "inputs": [
        {
          "internalType": "bytes32",
          "name": "role",
          "type": "bytes32"
        },
        {
          "internalType": "address",
          "name": "account",
          "type": "address"
        }
      ],
      "name": "hasRole",
      "outputs": [
        {
          "internalType": "bool",
          "name": "",
          "type": "bool"
        }
      ],
      "stateMutability": "view",
      "type": "function"
    },
    {
      "inputs": [],
      "name": "minAmountGovernor",
      "outputs": [
        {
          "internalType": "uint256",
          "name": "",
          "type": "uint256"
        }
      ],
      "stateMutability": "view",
      "type": "function"
    },
    {
      "inputs": [],
      "name": "numOfProposals",
      "outputs": [
        {
          "internalType": "uint256",
          "name": "",
          "type": "uint256"
        }
      ],
      "stateMutability": "view",
      "type": "function"
    },
    {
      "inputs": [],
      "name": "pendingBalance",
      "outputs": [
        {
          "internalType": "uint256",
          "name": "",
          "type": "uint256"
        }
      ],
      "stateMutability": "view",
      "type": "function"
    },
    {
      "inputs": [
        {
          "internalType": "bytes32",
          "name": "role",
          "type": "bytes32"
        },
        {
          "internalType": "address",
          "name": "account",
          "type": "address"
        }
      ],
      "name": "renounceRole",
      "outputs": [],
      "stateMutability": "nonpayable",
      "type": "function"
    },
    {
      "inputs": [
        {
          "internalType": "bytes32",
          "name": "role",
          "type": "bytes32"
        },
        {
          "internalType": "address",
          "name": "account",
          "type": "address"
        }
      ],
      "name": "revokeRole",
      "outputs": [],
      "stateMutability": "nonpayable",
      "type": "function"
    },
    {
      "inputs": [
        {
          "internalType": "bytes4",
          "name": "interfaceId",
          "type": "bytes4"
        }
      ],
      "name": "supportsInterface",
      "outputs": [
        {
          "internalType": "bool",
          "name": "",
          "type": "bool"
        }
      ],
      "stateMutability": "view",
      "type": "function"
    },
    {
      "inputs": [],
      "name": "totalContribution",
      "outputs": [
        {
          "internalType": "uint256",
          "name": "",
          "type": "uint256"
        }
      ],
      "stateMutability": "view",
      "type": "function"
    },
    {
      "inputs": [],
      "name": "totalContributors",
      "outputs": [
        {
          "internalType": "uint256",
          "name": "",
          "type": "uint256"
        }
      ],
      "stateMutability": "view",
      "type": "function"
    },
    {
      "inputs": [],
      "name": "totalGovernors",
      "outputs": [
        {
          "internalType": "uint256",
          "name": "",
          "type": "uint256"
        }
      ],
      "stateMutability": "view",
      "type": "function"
    },
    {
      "inputs": [
        {
          "internalType": "address",
          "name": "",
          "type": "address"
        },
        {
          "internalType": "uint256",
          "name": "",
          "type": "uint256"
        }
      ],
      "name": "voteHolder",
      "outputs": [
        {
          "internalType": "bool",
          "name": "",
          "type": "bool"
        }
      ],
      "stateMutability": "view",
      "type": "function"
    },
    {
      "stateMutability": "payable",
      "type": "receive"
    },
    {
      "inputs": [
        {
          "internalType": "uint256",
          "name": "amount",
          "type": "uint256"
        }
      ],
      "name": "stakeGovernor",
      "outputs": [],
      "stateMutability": "payable",
      "type": "function"
    },
    {
      "inputs": [
        {
          "internalType": "uint256",
          "name": "amount",
          "type": "uint256"
        }
      ],
      "name": "contribute",
      "outputs": [],
      "stateMutability": "payable",
      "type": "function"
    },
    {
      "inputs": [
        {
          "internalType": "string",
          "name": "description",
          "type": "string"
        },
        {
          "internalType": "address",
          "name": "charityAddress",
          "type": "address"
        },
        {
          "internalType": "uint256",
          "name": "amount",
          "type": "uint256"
        }
      ],
      "name": "createProposal",
      "outputs": [],
      "stateMutability": "nonpayable",
      "type": "function"
    },
    {
      "inputs": [
        {
          "internalType": "uint256",
          "name": "proposalId",
          "type": "uint256"
        },
        {
          "internalType": "address",
          "name": "voter",
          "type": "address"
        },
        {
          "internalType": "bool",
          "name": "supportProposal",
          "type": "bool"
        },
        {
          "internalType": "uint256",
          "name": "voteValue",
          "type": "uint256"
        },
        {
          "internalType": "bytes[]",
          "name": "signatures",
          "type": "bytes[]"
        }
      ],
      "name": "voteProposal",
      "outputs": [],
      "stateMutability": "nonpayable",
      "type": "function"
    },
    {
      "inputs": [
        {
          "internalType": "uint256",
          "name": "proposalId",
          "type": "uint256"
        }
      ],
      "name": "finishProposal",
      "outputs": [],
      "stateMutability": "nonpayable",
      "type": "function"
    },
    {
      "inputs": [],
      "name": "getProposals",
      "outputs": [
        {
          "components": [
            {
              "internalType": "uint256",
              "name": "id",
              "type": "uint256"
            },
            {
              "internalType": "uint256",
              "name": "amount",
              "type": "uint256"
            },
            {
              "internalType": "uint256",
              "name": "livePeriod",
              "type": "uint256"
            },
            {
              "internalType": "uint256",
              "name": "votesFor",
              "type": "uint256"
            },
            {
              "internalType": "uint256",
              "name": "countVotesFor",
              "type": "uint256"
            },
            {
              "internalType": "uint256",
              "name": "votesAgainst",
              "type": "uint256"
            },
            {
              "internalType": "uint256",
              "name": "countVotesAgainst",
              "type": "uint256"
            },
            {
              "internalType": "uint256",
              "name": "totalVoted",
              "type": "uint256"
            },
            {
              "internalType": "string",
              "name": "description",
              "type": "string"
            },
            {
              "internalType": "address payable",
              "name": "charityAddress",
              "type": "address"
            },
            {
              "internalType": "address",
              "name": "proposer",
              "type": "address"
            },
            {
              "internalType": "address",
              "name": "governor",
              "type": "address"
            },
            {
              "internalType": "bool",
              "name": "finished",
              "type": "bool"
            },
            {
              "internalType": "bool",
              "name": "votingPassed",
              "type": "bool"
            }
          ],
          "internalType": "struct DAO_NFT.CharityProposal[]",
          "name": "props",
          "type": "tuple[]"
        }
      ],
      "stateMutability": "view",
      "type": "function"
    },
    {
      "inputs": [
        {
          "internalType": "uint256",
          "name": "proposalId",
          "type": "uint256"
        }
      ],
      "name": "getProposal",
      "outputs": [
        {
          "components": [
            {
              "internalType": "uint256",
              "name": "id",
              "type": "uint256"
            },
            {
              "internalType": "uint256",
              "name": "amount",
              "type": "uint256"
            },
            {
              "internalType": "uint256",
              "name": "livePeriod",
              "type": "uint256"
            },
            {
              "internalType": "uint256",
              "name": "votesFor",
              "type": "uint256"
            },
            {
              "internalType": "uint256",
              "name": "countVotesFor",
              "type": "uint256"
            },
            {
              "internalType": "uint256",
              "name": "votesAgainst",
              "type": "uint256"
            },
            {
              "internalType": "uint256",
              "name": "countVotesAgainst",
              "type": "uint256"
            },
            {
              "internalType": "uint256",
              "name": "totalVoted",
              "type": "uint256"
            },
            {
              "internalType": "string",
              "name": "description",
              "type": "string"
            },
            {
              "internalType": "address payable",
              "name": "charityAddress",
              "type": "address"
            },
            {
              "internalType": "address",
              "name": "proposer",
              "type": "address"
            },
            {
              "internalType": "address",
              "name": "governor",
              "type": "address"
            },
            {
              "internalType": "bool",
              "name": "finished",
              "type": "bool"
            },
            {
              "internalType": "bool",
              "name": "votingPassed",
              "type": "bool"
            }
          ],
          "internalType": "struct DAO_NFT.CharityProposal",
          "name": "",
          "type": "tuple"
        }
      ],
      "stateMutability": "view",
      "type": "function"
    },
    {
      "inputs": [
        {
          "internalType": "address",
          "name": "user",
          "type": "address"
        }
      ],
      "name": "isContributor",
      "outputs": [
        {
          "internalType": "bool",
          "name": "",
          "type": "bool"
        }
      ],
      "stateMutability": "view",
      "type": "function"
    },
    {
      "inputs": [
        {
          "internalType": "address",
          "name": "user",
          "type": "address"
        },
        {
          "internalType": "uint256",
          "name": "proposalId",
          "type": "uint256"
        }
      ],
      "name": "hasVoted",
      "outputs": [
        {
          "internalType": "bool",
          "name": "",
          "type": "bool"
        }
      ],
      "stateMutability": "view",
      "type": "function"
    },
    {
      "inputs": [
        {
          "internalType": "address",
          "name": "user",
          "type": "address"
        }
      ],
      "name": "getContributionPercentageX100",
      "outputs": [
        {
          "internalType": "uint256",
          "name": "",
          "type": "uint256"
        }
      ],
      "stateMutability": "view",
      "type": "function"
    }
  ],
  "bytecode": "0x60806040526042600f60006101000a81548160ff021916908360ff160217905550600a600f60016101000a81548160ff021916908360ff1602179055506021600f60026101000a81548160ff021916908360ff1602179055503480156200006557600080fd5b50620000e26040518060400160405280600381526020017f44414f00000000000000000000000000000000000000000000000000000000008152506040518060400160405280600581526020017f302e302e31000000000000000000000000000000000000000000000000000000815250620000e860201b60201c565b62000275565b60008280519060200120905060008280519060200120905060007f8b73c3c69bb8fe3d512ecc4cf759cc79239f7b179b0ffacaa9a75d522b39400f90508260038190555081600481905550466002819055506200014d8184846200016160201b60201c565b600181905550806005819055505050505050565b600083838346306040516020016200017e95949392919062000218565b6040516020818303038152906040528051906020012090509392505050565b6000819050919050565b620001b2816200019d565b82525050565b6000819050919050565b620001cd81620001b8565b82525050565b600073ffffffffffffffffffffffffffffffffffffffff82169050919050565b60006200020082620001d3565b9050919050565b6200021281620001f3565b82525050565b600060a0820190506200022f6000830188620001a7565b6200023e6020830187620001a7565b6200024d6040830186620001a7565b6200025c6060830185620001c2565b6200026b608083018462000207565b9695505050505050565b61464680620002856000396000f3fe6080604052600436106101d15760003560e01c8063837422f9116100f7578063c7f758a811610095578063e1d3ce5911610064578063e1d3ce5914610692578063e9d5bfe5146106bd578063f251fc8c146106fa578063f6fe877a14610725576101db565b8063c7f758a8146105d6578063cb5cdf4114610613578063ccc574901461063e578063d547741f14610669576101db565b8063aa6b17b1116100d1578063aa6b17b114610548578063ab2f0e5114610573578063bf0955f81461059e578063c1cbbca7146105ba576101db565b8063837422f9146104b557806391d14854146104e0578063a217fddf1461051d576101db565b80632f2ff15d1161016f5780635f5702531161013e5780635f570253146103f957806362564c48146104245780638101b52e1461044f578063831c43ac1461048c576101db565b80632f2ff15d1461033f57806336568abe14610368578063425458251461039157806357b4d18e146103ce576101db565b80631d0d35f5116101ab5780631d0d35f5146102735780631f14b127146102b0578063248a9ca3146102d95780632739327814610316576101db565b806301ffc9a7146101e05780630dcf4b8f1461021d5780630ef60a8514610248576101db565b366101db57600080fd5b600080fd5b3480156101ec57600080fd5b5061020760048036038101906102029190612b51565b610750565b6040516102149190612b99565b60405180910390f35b34801561022957600080fd5b506102326107ca565b60405161023f9190612bcd565b60405180910390f35b34801561025457600080fd5b5061025d6107d0565b60405161026a9190612bcd565b60405180910390f35b34801561027f57600080fd5b5061029a60048036038101906102959190612c46565b6107d6565b6040516102a79190612b99565b60405180910390f35b3480156102bc57600080fd5b506102d760048036038101906102d29190612ef7565b610832565b005b3480156102e557600080fd5b5061030060048036038101906102fb9190612fc4565b610d05565b60405161030d9190613000565b60405180910390f35b34801561032257600080fd5b5061033d6004803603810190610338919061301b565b610d24565b005b34801561034b57600080fd5b5061036660048036038101906103619190613048565b61110a565b005b34801561037457600080fd5b5061038f600480360381019061038a9190613048565b61112b565b005b34801561039d57600080fd5b506103b860048036038101906103b39190613088565b6111ae565b6040516103c59190612b99565b60405180910390f35b3480156103da57600080fd5b506103e3611216565b6040516103f09190612bcd565b60405180910390f35b34801561040557600080fd5b5061040e61121c565b60405161041b9190612bcd565b60405180910390f35b34801561043057600080fd5b50610439611222565b604051610446919061338e565b60405180910390f35b34801561045b57600080fd5b5061047660048036038101906104719190613088565b6114f7565b6040516104839190612b99565b60405180910390f35b34801561049857600080fd5b506104b360048036038101906104ae919061340b565b611526565b005b3480156104c157600080fd5b506104ca611783565b6040516104d79190612bcd565b60405180910390f35b3480156104ec57600080fd5b5061050760048036038101906105029190613048565b611789565b6040516105149190612b99565b60405180910390f35b34801561052957600080fd5b506105326117f3565b60405161053f9190613000565b60405180910390f35b34801561055457600080fd5b5061055d6117fa565b60405161056a9190612bcd565b60405180910390f35b34801561057f57600080fd5b50610588611800565b6040516105959190612bcd565b60405180910390f35b6105b860048036038101906105b3919061301b565b611806565b005b6105d460048036038101906105cf919061301b565b6119cd565b005b3480156105e257600080fd5b506105fd60048036038101906105f8919061301b565b611b7e565b60405161060a91906135ad565b60405180910390f35b34801561061f57600080fd5b50610628611dc6565b6040516106359190612bcd565b60405180910390f35b34801561064a57600080fd5b50610653611dcc565b6040516106609190613000565b60405180910390f35b34801561067557600080fd5b50610690600480360381019061068b9190613048565b611df0565b005b34801561069e57600080fd5b506106a7611e11565b6040516106b49190613000565b60405180910390f35b3480156106c957600080fd5b506106e460048036038101906106df9190612c46565b611e35565b6040516106f19190612bcd565b60405180910390f35b34801561070657600080fd5b5061070f611ea2565b60405161071c9190612bcd565b60405180910390f35b34801561073157600080fd5b5061073a611ea8565b6040516107479190612bcd565b60405180910390f35b60007f7965db0b000000000000000000000000000000000000000000000000000000007bffffffffffffffffffffffffffffffffffffffffffffffffffffffff1916827bffffffffffffffffffffffffffffffffffffffffffffffffffffffff191614806107c357506107c282611ead565b5b9050919050565b600a5481565b600e5481565b600080601260008473ffffffffffffffffffffffffffffffffffffffff1673ffffffffffffffffffffffffffffffffffffffff168152602001908152602001600020541115610828576001905061082d565b600090505b919050565b6040518060600160405280602581526020016145bb602591396000601260003373ffffffffffffffffffffffffffffffffffffffff1673ffffffffffffffffffffffffffffffffffffffff168152602001908152602001600020541181906108d0576040517f08c379a00000000000000000000000000000000000000000000000000000000081526004016108c79190613619565b60405180910390fd5b5085600060116000838152602001908152602001600020905060001515601460003373ffffffffffffffffffffffffffffffffffffffff1673ffffffffffffffffffffffffffffffffffffffff168152602001908152602001600020600084815260200190815260200160002060009054906101000a900460ff1615151461098d576040517f08c379a000000000000000000000000000000000000000000000000000000000815260040161098490613687565b60405180910390fd5b428160020154116109d3576040517f08c379a00000000000000000000000000000000000000000000000000000000081526004016109ca906136f3565b60405180910390fd5b80600b0160149054906101000a900460ff1615610a25576040517f08c379a0000000000000000000000000000000000000000000000000000000008152600401610a1c9061375f565b60405180910390fd5b7fccea1d5a9f92dc5569f2806ec0e237ab9a416fe2a3d605ca083e010b9060217488888888886000815111610a8f576040517f08c379a0000000000000000000000000000000000000000000000000000000008152600401610a86906137cb565b60405180910390fd5b600f60009054906101000a900460ff1660ff16600e5460648351610ab3919061381a565b610abd91906138a3565b1015610afe576040517f08c379a0000000000000000000000000000000000000000000000000000000008152600401610af590613920565b60405180910390fd5b6002815110610c195760005b8151811015610c17576000600182610b229190613940565b90505b8251811015610c0357828181518110610b4157610b40613996565b5b6020026020010151604051602001610b599190613a0c565b60405160208183030381529060405280519060200120838381518110610b8257610b81613996565b5b6020026020010151604051602001610b9a9190613a0c565b6040516020818303038152906040528051906020012003610bf0576040517f08c379a0000000000000000000000000000000000000000000000000000000008152600401610be790613a6f565b60405180910390fd5b8080610bfb90613a8f565b915050610b25565b508080610c0f90613a8f565b915050610b0a565b505b60005b8151811015610ce957600060136000610c5b610c3b8b8b8b8b8b611f17565b868681518110610c4e57610c4d613996565b5b6020026020010151611f5b565b73ffffffffffffffffffffffffffffffffffffffff1673ffffffffffffffffffffffffffffffffffffffff1681526020019081526020016000205411610cd6576040517f08c379a0000000000000000000000000000000000000000000000000000000008152600401610ccd90613b23565b60405180910390fd5b8080610ce190613a8f565b915050610c1c565b50610cf58e8d8d611f6f565b5050505050505050505050505050565b6000806000838152602001908152602001600020600101549050919050565b80600060116000838152602001908152602001600020905042816002015410610d82576040517f08c379a0000000000000000000000000000000000000000000000000000000008152600401610d7990613b8f565b60405180910390fd5b80600b0160149054906101000a900460ff1615610dd4576040517f08c379a0000000000000000000000000000000000000000000000000000000008152600401610dcb9061375f565b60405180910390fd5b6040518060600160405280602c815260200161458f602c9139610e177f1a6838efa4183e08fe3607359d1259272af9d4716f65e1a7b5921f78fd5a3c6a33611789565b8190610e59576040517f08c379a0000000000000000000000000000000000000000000000000000000008152600401610e509190613619565b60405180910390fd5b5060006011600086815260200190815260200160002090506000816005015482600301541115610f80578160090160009054906101000a900473ffffffffffffffffffffffffffffffffffffffff1673ffffffffffffffffffffffffffffffffffffffff16867fa88c7d9be431a25f12fc380c50738a5aecc2d2415bc734416cb02a8bb04a5a3a8460010154604051610ef29190612bcd565b60405180910390a38160090160009054906101000a900473ffffffffffffffffffffffffffffffffffffffff1673ffffffffffffffffffffffffffffffffffffffff16867fbc764f54747b510d1e265b3e5dd7dc99c81e668c7a4e232ea8c0df35402a222584600101546001604051610f6c929190613baf565b60405180910390a381600101549050610ff7565b8160090160009054906101000a900473ffffffffffffffffffffffffffffffffffffffff1673ffffffffffffffffffffffffffffffffffffffff16867fbc764f54747b510d1e265b3e5dd7dc99c81e668c7a4e232ea8c0df35402a2225600080604051610fee929190613c1d565b60405180910390a35b8160010154600c600082825461100d9190613c46565b92505081905550600182600b0160146101000a81548160ff0219169083151502179055503382600b0160006101000a81548173ffffffffffffffffffffffffffffffffffffffff021916908373ffffffffffffffffffffffffffffffffffffffff1602179055506000811115611102578160090160009054906101000a900473ffffffffffffffffffffffffffffffffffffffff1673ffffffffffffffffffffffffffffffffffffffff166108fc829081150290604051600060405180830381858888f193505050501580156110e7573d6000803e3d6000fd5b5080600960008282546110fa9190613c46565b925050819055505b505050505050565b61111382610d05565b61111c81612037565b611126838361204b565b505050565b61113361212b565b73ffffffffffffffffffffffffffffffffffffffff168173ffffffffffffffffffffffffffffffffffffffff16146111a0576040517f08c379a000000000000000000000000000000000000000000000000000000000815260040161119790613cec565b60405180910390fd5b6111aa8282612133565b5050565b6000601460008473ffffffffffffffffffffffffffffffffffffffff1673ffffffffffffffffffffffffffffffffffffffff168152602001908152602001600020600083815260200190815260200160002060009054906101000a900460ff16905092915050565b600c5481565b600d5481565b6060600d5467ffffffffffffffff8111156112405761123f612ce1565b5b60405190808252806020026020018201604052801561127957816020015b61126661298d565b81526020019060019003908161125e5790505b50905060005b600d548110156114f35760116000828152602001908152602001600020604051806101c0016040529081600082015481526020016001820154815260200160028201548152602001600382015481526020016004820154815260200160058201548152602001600682015481526020016007820154815260200160088201805461130890613d3b565b80601f016020809104026020016040519081016040528092919081815260200182805461133490613d3b565b80156113815780601f1061135657610100808354040283529160200191611381565b820191906000526020600020905b81548152906001019060200180831161136457829003601f168201915b505050505081526020016009820160009054906101000a900473ffffffffffffffffffffffffffffffffffffffff1673ffffffffffffffffffffffffffffffffffffffff1673ffffffffffffffffffffffffffffffffffffffff168152602001600a820160009054906101000a900473ffffffffffffffffffffffffffffffffffffffff1673ffffffffffffffffffffffffffffffffffffffff1673ffffffffffffffffffffffffffffffffffffffff168152602001600b820160009054906101000a900473ffffffffffffffffffffffffffffffffffffffff1673ffffffffffffffffffffffffffffffffffffffff1673ffffffffffffffffffffffffffffffffffffffff168152602001600b820160149054906101000a900460ff16151515158152602001600b820160159054906101000a900460ff1615151515815250508282815181106114d5576114d4613996565b5b602002602001018190525080806114eb90613a8f565b91505061127f565b5090565b60146020528160005260406000206020528060005260406000206000915091509054906101000a900460ff1681565b6040518060600160405280603181526020016145e0603191396000601260003373ffffffffffffffffffffffffffffffffffffffff1673ffffffffffffffffffffffffffffffffffffffff168152602001908152602001600020541181906115c4576040517f08c379a00000000000000000000000000000000000000000000000000000000081526004016115bb9190613619565b60405180910390fd5b5081600c546009546115d69190613c46565b11611616576040517f08c379a000000000000000000000000000000000000000000000000000000000815260040161160d90613dde565b60405180910390fd5b60006007600081548092919061162b90613a8f565b91905055905060006011600083815260200190815260200160002090508181600001819055503381600a0160006101000a81548173ffffffffffffffffffffffffffffffffffffffff021916908373ffffffffffffffffffffffffffffffffffffffff16021790555086868260080191906116a7929190612a42565b50848160090160006101000a81548173ffffffffffffffffffffffffffffffffffffffff021916908373ffffffffffffffffffffffffffffffffffffffff1602179055508381600101819055506212750063ffffffff16426117099190613940565b816002018190555083600c60008282546117239190613940565b925050819055503373ffffffffffffffffffffffffffffffffffffffff167f609b4e281bd96e064f81eddd1d559b479db56aa1ba14e155718d20ccc905ff788386604051611772929190613dfe565b60405180910390a250505050505050565b60075481565b600080600084815260200190815260200160002060000160008373ffffffffffffffffffffffffffffffffffffffff1673ffffffffffffffffffffffffffffffffffffffff16815260200190815260200160002060009054906101000a900460ff16905092915050565b6000801b81565b60085481565b60095481565b6040518060400160405280601781526020017f416c72656164792074686520676f7665726e6f722121210000000000000000008152506118667f1a6838efa4183e08fe3607359d1259272af9d4716f65e1a7b5921f78fd5a3c6a33611789565b1581906118a9576040517f08c379a00000000000000000000000000000000000000000000000000000000081526004016118a09190613619565b60405180910390fd5b508134146118ec576040517f08c379a00000000000000000000000000000000000000000000000000000000081526004016118e390613e99565b60405180910390fd5b670de0b6b3a7640000600a611901919061381a565b8211611942576040517f08c379a000000000000000000000000000000000000000000000000000000000815260040161193990613f2b565b60405180910390fd5b81601360003373ffffffffffffffffffffffffffffffffffffffff1673ffffffffffffffffffffffffffffffffffffffff1681526020019081526020016000208190555081600860008282546119989190613940565b925050819055506119c97f1a6838efa4183e08fe3607359d1259272af9d4716f65e1a7b5921f78fd5a3c6a33612214565b5050565b803414611a0f576040517f08c379a0000000000000000000000000000000000000000000000000000000008152600401611a0690613e99565b60405180910390fd5b662386f26fc100003411611a58576040517f08c379a0000000000000000000000000000000000000000000000000000000008152600401611a4f90613fbd565b60405180910390fd5b8060096000828254611a6a9190613940565b925050819055506000601260003373ffffffffffffffffffffffffffffffffffffffff1673ffffffffffffffffffffffffffffffffffffffff1681526020019081526020016000205403611ad3576001600b6000828254611acb9190613940565b925050819055505b80601260003373ffffffffffffffffffffffffffffffffffffffff1673ffffffffffffffffffffffffffffffffffffffff1681526020019081526020016000206000828254611b229190613940565b9250508190555080600a6000828254611b3b9190613940565b925050819055507f1bb460ccaaf70fbacfec17a376f8acbd278c1405590ffcc8ebe4b88daf4f64ad3334604051611b73929190613fec565b60405180910390a150565b611b8661298d565b60116000838152602001908152602001600020604051806101c00160405290816000820154815260200160018201548152602001600282015481526020016003820154815260200160048201548152602001600582015481526020016006820154815260200160078201548152602001600882018054611c0590613d3b565b80601f0160208091040260200160405190810160405280929190818152602001828054611c3190613d3b565b8015611c7e5780601f10611c5357610100808354040283529160200191611c7e565b820191906000526020600020905b815481529060010190602001808311611c6157829003601f168201915b505050505081526020016009820160009054906101000a900473ffffffffffffffffffffffffffffffffffffffff1673ffffffffffffffffffffffffffffffffffffffff1673ffffffffffffffffffffffffffffffffffffffff168152602001600a820160009054906101000a900473ffffffffffffffffffffffffffffffffffffffff1673ffffffffffffffffffffffffffffffffffffffff1673ffffffffffffffffffffffffffffffffffffffff168152602001600b820160009054906101000a900473ffffffffffffffffffffffffffffffffffffffff1673ffffffffffffffffffffffffffffffffffffffff1673ffffffffffffffffffffffffffffffffffffffff168152602001600b820160149054906101000a900460ff16151515158152602001600b820160159054906101000a900460ff1615151515815250509050919050565b60065481565b7f1a6838efa4183e08fe3607359d1259272af9d4716f65e1a7b5921f78fd5a3c6a81565b611df982610d05565b611e0281612037565b611e0c8383612133565b505050565b7fccea1d5a9f92dc5569f2806ec0e237ab9a416fe2a3d605ca083e010b9060217481565b6000600a54606480601260008673ffffffffffffffffffffffffffffffffffffffff1673ffffffffffffffffffffffffffffffffffffffff16815260200190815260200160002054611e87919061381a565b611e91919061381a565b611e9b91906138a3565b9050919050565b600b5481565b600a81565b60007f01ffc9a7000000000000000000000000000000000000000000000000000000007bffffffffffffffffffffffffffffffffffffffffffffffffffffffff1916827bffffffffffffffffffffffffffffffffffffffffffffffffffffffff1916149050919050565b6000611f508686868686604051602001611f35959493929190614015565b60405160208183030381529060405280519060200120612222565b905095945050505050565b6000611f67838361223c565b905092915050565b60006011600085815260200190815260200160002090508215611fac5781816003016000828254611fa09190613940565b92505081905550611fc8565b81816005016000828254611fc09190613940565b925050819055505b6001601460003373ffffffffffffffffffffffffffffffffffffffff1673ffffffffffffffffffffffffffffffffffffffff168152602001908152602001600020600086815260200190815260200160002060006101000a81548160ff02191690831515021790555050505050565b6120488161204361212b565b612263565b50565b6120558282611789565b61212757600160008084815260200190815260200160002060000160008373ffffffffffffffffffffffffffffffffffffffff1673ffffffffffffffffffffffffffffffffffffffff16815260200190815260200160002060006101000a81548160ff0219169083151502179055506120cc61212b565b73ffffffffffffffffffffffffffffffffffffffff168173ffffffffffffffffffffffffffffffffffffffff16837f2f8788117e7eff1d82e926ec794901d17c78024a50270940304540a733656f0d60405160405180910390a45b5050565b600033905090565b61213d8282611789565b1561221057600080600084815260200190815260200160002060000160008373ffffffffffffffffffffffffffffffffffffffff1673ffffffffffffffffffffffffffffffffffffffff16815260200190815260200160002060006101000a81548160ff0219169083151502179055506121b561212b565b73ffffffffffffffffffffffffffffffffffffffff168173ffffffffffffffffffffffffffffffffffffffff16837ff6391f5c32d9c69d2a47ea670b442974b53935d1edc7fd64eb21e047a839171b60405160405180910390a45b5050565b61221e828261204b565b5050565b600061223561222f612300565b8361232c565b9050919050565b600080600061224b858561235f565b91509150612258816123e0565b819250505092915050565b61226d8282611789565b6122fc576122928173ffffffffffffffffffffffffffffffffffffffff1660146125ac565b6122a08360001c60206125ac565b6040516020016122b192919061413c565b6040516020818303038152906040526040517f08c379a00000000000000000000000000000000000000000000000000000000081526004016122f39190613619565b60405180910390fd5b5050565b60006002544603612315576001549050612329565b6123266005546003546004546127e8565b90505b90565b600082826040516020016123419291906141e3565b60405160208183030381529060405280519060200120905092915050565b60008060418351036123a05760008060006020860151925060408601519150606086015160001a905061239487828585612822565b945094505050506123d9565b60408351036123d05760008060208501519150604085015190506123c586838361292e565b9350935050506123d9565b60006002915091505b9250929050565b600060048111156123f4576123f361421a565b5b8160048111156124075761240661421a565b5b03156125a957600160048111156124215761242061421a565b5b8160048111156124345761243361421a565b5b03612474576040517f08c379a000000000000000000000000000000000000000000000000000000000815260040161246b90614295565b60405180910390fd5b600260048111156124885761248761421a565b5b81600481111561249b5761249a61421a565b5b036124db576040517f08c379a00000000000000000000000000000000000000000000000000000000081526004016124d290614301565b60405180910390fd5b600360048111156124ef576124ee61421a565b5b8160048111156125025761250161421a565b5b03612542576040517f08c379a000000000000000000000000000000000000000000000000000000000815260040161253990614393565b60405180910390fd5b6004808111156125555761255461421a565b5b8160048111156125685761256761421a565b5b036125a8576040517f08c379a000000000000000000000000000000000000000000000000000000000815260040161259f90614425565b60405180910390fd5b5b50565b6060600060028360026125bf919061381a565b6125c99190613940565b67ffffffffffffffff8111156125e2576125e1612ce1565b5b6040519080825280601f01601f1916602001820160405280156126145781602001600182028036833780820191505090505b5090507f30000000000000000000000000000000000000000000000000000000000000008160008151811061264c5761264b613996565b5b60200101907effffffffffffffffffffffffffffffffffffffffffffffffffffffffffffff1916908160001a9053507f7800000000000000000000000000000000000000000000000000000000000000816001815181106126b0576126af613996565b5b60200101907effffffffffffffffffffffffffffffffffffffffffffffffffffffffffffff1916908160001a905350600060018460026126f0919061381a565b6126fa9190613940565b90505b600181111561279a577f3031323334353637383961626364656600000000000000000000000000000000600f86166010811061273c5761273b613996565b5b1a60f81b82828151811061275357612752613996565b5b60200101907effffffffffffffffffffffffffffffffffffffffffffffffffffffffffffff1916908160001a905350600485901c94508061279390614445565b90506126fd565b50600084146127de576040517f08c379a00000000000000000000000000000000000000000000000000000000081526004016127d5906144ba565b60405180910390fd5b8091505092915050565b600083838346306040516020016128039594939291906144da565b6040516020818303038152906040528051906020012090509392505050565b6000807f7fffffffffffffffffffffffffffffff5d576e7357a4501ddfe92f46681b20a08360001c111561285d576000600391509150612925565b601b8560ff16141580156128755750601c8560ff1614155b15612887576000600491509150612925565b6000600187878787604051600081526020016040526040516128ac9493929190614549565b6020604051602081039080840390855afa1580156128ce573d6000803e3d6000fd5b505050602060405103519050600073ffffffffffffffffffffffffffffffffffffffff168173ffffffffffffffffffffffffffffffffffffffff160361291c57600060019250925050612925565b80600092509250505b94509492505050565b60008060007f7fffffffffffffffffffffffffffffffffffffffffffffffffffffffffffffff60001b841690506000601b60ff8660001c901c6129719190613940565b905061297f87828885612822565b935093505050935093915050565b604051806101c00160405280600081526020016000815260200160008152602001600081526020016000815260200160008152602001600081526020016000815260200160608152602001600073ffffffffffffffffffffffffffffffffffffffff168152602001600073ffffffffffffffffffffffffffffffffffffffff168152602001600073ffffffffffffffffffffffffffffffffffffffff1681526020016000151581526020016000151581525090565b828054612a4e90613d3b565b90600052602060002090601f016020900481019282612a705760008555612ab7565b82601f10612a8957803560ff1916838001178555612ab7565b82800160010185558215612ab7579182015b82811115612ab6578235825591602001919060010190612a9b565b5b509050612ac49190612ac8565b5090565b5b80821115612ae1576000816000905550600101612ac9565b5090565b6000604051905090565b600080fd5b600080fd5b60007fffffffff0000000000000000000000000000000000000000000000000000000082169050919050565b612b2e81612af9565b8114612b3957600080fd5b50565b600081359050612b4b81612b25565b92915050565b600060208284031215612b6757612b66612aef565b5b6000612b7584828501612b3c565b91505092915050565b60008115159050919050565b612b9381612b7e565b82525050565b6000602082019050612bae6000830184612b8a565b92915050565b6000819050919050565b612bc781612bb4565b82525050565b6000602082019050612be26000830184612bbe565b92915050565b600073ffffffffffffffffffffffffffffffffffffffff82169050919050565b6000612c1382612be8565b9050919050565b612c2381612c08565b8114612c2e57600080fd5b50565b600081359050612c4081612c1a565b92915050565b600060208284031215612c5c57612c5b612aef565b5b6000612c6a84828501612c31565b91505092915050565b612c7c81612bb4565b8114612c8757600080fd5b50565b600081359050612c9981612c73565b92915050565b612ca881612b7e565b8114612cb357600080fd5b50565b600081359050612cc581612c9f565b92915050565b600080fd5b6000601f19601f8301169050919050565b7f4e487b7100000000000000000000000000000000000000000000000000000000600052604160045260246000fd5b612d1982612cd0565b810181811067ffffffffffffffff82111715612d3857612d37612ce1565b5b80604052505050565b6000612d4b612ae5565b9050612d578282612d10565b919050565b600067ffffffffffffffff821115612d7757612d76612ce1565b5b602082029050602081019050919050565b600080fd5b600080fd5b600067ffffffffffffffff821115612dad57612dac612ce1565b5b612db682612cd0565b9050602081019050919050565b82818337600083830152505050565b6000612de5612de084612d92565b612d41565b905082815260208101848484011115612e0157612e00612d8d565b5b612e0c848285612dc3565b509392505050565b600082601f830112612e2957612e28612ccb565b5b8135612e39848260208601612dd2565b91505092915050565b6000612e55612e5084612d5c565b612d41565b90508083825260208201905060208402830185811115612e7857612e77612d88565b5b835b81811015612ebf57803567ffffffffffffffff811115612e9d57612e9c612ccb565b5b808601612eaa8982612e14565b85526020850194505050602081019050612e7a565b5050509392505050565b600082601f830112612ede57612edd612ccb565b5b8135612eee848260208601612e42565b91505092915050565b600080600080600060a08688031215612f1357612f12612aef565b5b6000612f2188828901612c8a565b9550506020612f3288828901612c31565b9450506040612f4388828901612cb6565b9350506060612f5488828901612c8a565b925050608086013567ffffffffffffffff811115612f7557612f74612af4565b5b612f8188828901612ec9565b9150509295509295909350565b6000819050919050565b612fa181612f8e565b8114612fac57600080fd5b50565b600081359050612fbe81612f98565b92915050565b600060208284031215612fda57612fd9612aef565b5b6000612fe884828501612faf565b91505092915050565b612ffa81612f8e565b82525050565b60006020820190506130156000830184612ff1565b92915050565b60006020828403121561303157613030612aef565b5b600061303f84828501612c8a565b91505092915050565b6000806040838503121561305f5761305e612aef565b5b600061306d85828601612faf565b925050602061307e85828601612c31565b9150509250929050565b6000806040838503121561309f5761309e612aef565b5b60006130ad85828601612c31565b92505060206130be85828601612c8a565b9150509250929050565b600081519050919050565b600082825260208201905092915050565b6000819050602082019050919050565b6130fd81612bb4565b82525050565b600081519050919050565b600082825260208201905092915050565b60005b8381101561313d578082015181840152602081019050613122565b8381111561314c576000848401525b50505050565b600061315d82613103565b613167818561310e565b935061317781856020860161311f565b61318081612cd0565b840191505092915050565b600061319682612be8565b9050919050565b6131a68161318b565b82525050565b6131b581612c08565b82525050565b6131c481612b7e565b82525050565b60006101c0830160008301516131e360008601826130f4565b5060208301516131f660208601826130f4565b50604083015161320960408601826130f4565b50606083015161321c60608601826130f4565b50608083015161322f60808601826130f4565b5060a083015161324260a08601826130f4565b5060c083015161325560c08601826130f4565b5060e083015161326860e08601826130f4565b506101008301518482036101008601526132828282613152565b91505061012083015161329961012086018261319d565b506101408301516132ae6101408601826131ac565b506101608301516132c36101608601826131ac565b506101808301516132d86101808601826131bb565b506101a08301516132ed6101a08601826131bb565b508091505092915050565b600061330483836131ca565b905092915050565b6000602082019050919050565b6000613324826130c8565b61332e81856130d3565b935083602082028501613340856130e4565b8060005b8581101561337c578484038952815161335d85826132f8565b94506133688361330c565b925060208a01995050600181019050613344565b50829750879550505050505092915050565b600060208201905081810360008301526133a88184613319565b905092915050565b600080fd5b60008083601f8401126133cb576133ca612ccb565b5b8235905067ffffffffffffffff8111156133e8576133e76133b0565b5b60208301915083600182028301111561340457613403612d88565b5b9250929050565b6000806000806060858703121561342557613424612aef565b5b600085013567ffffffffffffffff81111561344357613442612af4565b5b61344f878288016133b5565b9450945050602061346287828801612c31565b925050604061347387828801612c8a565b91505092959194509250565b60006101c08301600083015161349860008601826130f4565b5060208301516134ab60208601826130f4565b5060408301516134be60408601826130f4565b5060608301516134d160608601826130f4565b5060808301516134e460808601826130f4565b5060a08301516134f760a08601826130f4565b5060c083015161350a60c08601826130f4565b5060e083015161351d60e08601826130f4565b506101008301518482036101008601526135378282613152565b91505061012083015161354e61012086018261319d565b506101408301516135636101408601826131ac565b506101608301516135786101608601826131ac565b5061018083015161358d6101808601826131bb565b506101a08301516135a26101a08601826131bb565b508091505092915050565b600060208201905081810360008301526135c7818461347f565b905092915050565b600082825260208201905092915050565b60006135eb82613103565b6135f581856135cf565b935061360581856020860161311f565b61360e81612cd0565b840191505092915050565b6000602082019050818103600083015261363381846135e0565b905092915050565b7f416c726561647920766f74656400000000000000000000000000000000000000600082015250565b6000613671600d836135cf565b915061367c8261363b565b602082019050919050565b600060208201905081810360008301526136a081613664565b9050919050565b7f566f74696e6720456e6465640000000000000000000000000000000000000000600082015250565b60006136dd600c836135cf565b91506136e8826136a7565b602082019050919050565b6000602082019050818103600083015261370c816136d0565b9050919050565b7f416c72656164792066696e697368656400000000000000000000000000000000600082015250565b60006137496010836135cf565b915061375482613713565b602082019050919050565b600060208201905081810360008301526137788161373c565b9050919050565b7f7369676e61747572657320617272617920697320656d70747900000000000000600082015250565b60006137b56019836135cf565b91506137c08261377f565b602082019050919050565b600060208201905081810360008301526137e4816137a8565b9050919050565b7f4e487b7100000000000000000000000000000000000000000000000000000000600052601160045260246000fd5b600061382582612bb4565b915061383083612bb4565b9250817fffffffffffffffffffffffffffffffffffffffffffffffffffffffffffffffff0483118215151615613869576138686137eb565b5b828202905092915050565b7f4e487b7100000000000000000000000000000000000000000000000000000000600052601260045260246000fd5b60006138ae82612bb4565b91506138b983612bb4565b9250826138c9576138c8613874565b5b828204905092915050565b7f5468726573686f6c64206e6f7420726561636865640000000000000000000000600082015250565b600061390a6015836135cf565b9150613915826138d4565b602082019050919050565b60006020820190508181036000830152613939816138fd565b9050919050565b600061394b82612bb4565b915061395683612bb4565b9250827fffffffffffffffffffffffffffffffffffffffffffffffffffffffffffffffff0382111561398b5761398a6137eb565b5b828201905092915050565b7f4e487b7100000000000000000000000000000000000000000000000000000000600052603260045260246000fd5b600081519050919050565b600081905092915050565b60006139e6826139c5565b6139f081856139d0565b9350613a0081856020860161311f565b80840191505092915050565b6000613a1882846139db565b915081905092915050565b7f43616e206e6f74206265207468652073616d65207369676e6174757265000000600082015250565b6000613a59601d836135cf565b9150613a6482613a23565b602082019050919050565b60006020820190508181036000830152613a8881613a4c565b9050919050565b6000613a9a82612bb4565b91507fffffffffffffffffffffffffffffffffffffffffffffffffffffffffffffffff8203613acc57613acb6137eb565b5b600182019050919050565b7f41207369676e6174757265206973206e6f742066726f6d20676f7665726e6f72600082015250565b6000613b0d6020836135cf565b9150613b1882613ad7565b602082019050919050565b60006020820190508181036000830152613b3c81613b00565b9050919050565b7f4e6f742066696e69736820796574000000000000000000000000000000000000600082015250565b6000613b79600e836135cf565b9150613b8482613b43565b602082019050919050565b60006020820190508181036000830152613ba881613b6c565b9050919050565b6000604082019050613bc46000830185612bbe565b613bd16020830184612b8a565b9392505050565b6000819050919050565b6000819050919050565b6000613c07613c02613bfd84613bd8565b613be2565b612bb4565b9050919050565b613c1781613bec565b82525050565b6000604082019050613c326000830185613c0e565b613c3f6020830184612b8a565b9392505050565b6000613c5182612bb4565b9150613c5c83612bb4565b925082821015613c6f57613c6e6137eb565b5b828203905092915050565b7f416363657373436f6e74726f6c3a2063616e206f6e6c792072656e6f756e636560008201527f20726f6c657320666f722073656c660000000000000000000000000000000000602082015250565b6000613cd6602f836135cf565b9150613ce182613c7a565b604082019050919050565b60006020820190508181036000830152613d0581613cc9565b9050919050565b7f4e487b7100000000000000000000000000000000000000000000000000000000600052602260045260246000fd5b60006002820490506001821680613d5357607f821691505b602082108103613d6657613d65613d0c565b5b50919050565b7f636f756c64206e6f742063726561746520616e7920636861726974792070726f60008201527f706f73616c2064756520746f20696e656666696369656e742062616c616e6365602082015250565b6000613dc86040836135cf565b9150613dd382613d6c565b604082019050919050565b60006020820190508181036000830152613df781613dbb565b9050919050565b6000604082019050613e136000830185612bbe565b613e206020830184612bbe565b9392505050565b7f4e617469766520746f6b656e2073656e64206e6f7420657175616c20746f206160008201527f6d6f756e74000000000000000000000000000000000000000000000000000000602082015250565b6000613e836025836135cf565b9150613e8e82613e27565b604082019050919050565b60006020820190508181036000830152613eb281613e76565b9050919050565b7f5374616b656420746f6b656e2068617320746f206265206d6f7265207468616e60008201527f206d696e20616d6f756e74000000000000000000000000000000000000000000602082015250565b6000613f15602b836135cf565b9150613f2082613eb9565b604082019050919050565b60006020820190508181036000830152613f4481613f08565b9050919050565b7f4e65656420746f20636f6e74726962757465206d6f7265207468616e20302e3060008201527f3100000000000000000000000000000000000000000000000000000000000000602082015250565b6000613fa76021836135cf565b9150613fb282613f4b565b604082019050919050565b60006020820190508181036000830152613fd681613f9a565b9050919050565b613fe681612c08565b82525050565b60006040820190506140016000830185613fdd565b61400e6020830184612bbe565b9392505050565b600060a08201905061402a6000830188612ff1565b6140376020830187612bbe565b6140446040830186613fdd565b6140516060830185612b8a565b61405e6080830184612bbe565b9695505050505050565b600081905092915050565b7f416363657373436f6e74726f6c3a206163636f756e7420000000000000000000600082015250565b60006140a9601783614068565b91506140b482614073565b601782019050919050565b60006140ca82613103565b6140d48185614068565b93506140e481856020860161311f565b80840191505092915050565b7f206973206d697373696e6720726f6c6520000000000000000000000000000000600082015250565b6000614126601183614068565b9150614131826140f0565b601182019050919050565b60006141478261409c565b915061415382856140bf565b915061415e82614119565b915061416a82846140bf565b91508190509392505050565b7f1901000000000000000000000000000000000000000000000000000000000000600082015250565b60006141ac600283614068565b91506141b782614176565b600282019050919050565b6000819050919050565b6141dd6141d882612f8e565b6141c2565b82525050565b60006141ee8261419f565b91506141fa82856141cc565b60208201915061420a82846141cc565b6020820191508190509392505050565b7f4e487b7100000000000000000000000000000000000000000000000000000000600052602160045260246000fd5b7f45434453413a20696e76616c6964207369676e61747572650000000000000000600082015250565b600061427f6018836135cf565b915061428a82614249565b602082019050919050565b600060208201905081810360008301526142ae81614272565b9050919050565b7f45434453413a20696e76616c6964207369676e6174757265206c656e67746800600082015250565b60006142eb601f836135cf565b91506142f6826142b5565b602082019050919050565b6000602082019050818103600083015261431a816142de565b9050919050565b7f45434453413a20696e76616c6964207369676e6174757265202773272076616c60008201527f7565000000000000000000000000000000000000000000000000000000000000602082015250565b600061437d6022836135cf565b915061438882614321565b604082019050919050565b600060208201905081810360008301526143ac81614370565b9050919050565b7f45434453413a20696e76616c6964207369676e6174757265202776272076616c60008201527f7565000000000000000000000000000000000000000000000000000000000000602082015250565b600061440f6022836135cf565b915061441a826143b3565b604082019050919050565b6000602082019050818103600083015261443e81614402565b9050919050565b600061445082612bb4565b915060008203614463576144626137eb565b5b600182039050919050565b7f537472696e67733a20686578206c656e67746820696e73756666696369656e74600082015250565b60006144a46020836135cf565b91506144af8261446e565b602082019050919050565b600060208201905081810360008301526144d381614497565b9050919050565b600060a0820190506144ef6000830188612ff1565b6144fc6020830187612ff1565b6145096040830186612ff1565b6145166060830185612bbe565b6145236080830184613fdd565b9695505050505050565b600060ff82169050919050565b6145438161452d565b82525050565b600060808201905061455e6000830187612ff1565b61456b602083018661453a565b6145786040830185612ff1565b6145856060830184612ff1565b9594505050505056fe4f6e6c7920676f6e7665726e6f72732061726520616c6c6f77656420746f206d616b65207061796d656e74734f6e6c7920636f6e7472696275746f72732061726520616c6c6f77656420746f20766f74654f6e6c7920636f6e7472696275746f72732061726520616c6c6f77656420746f206372656174652070726f706f73616c73a2646970667358221220f65b054b854d214711059bc7541248d75a8c2f2a410d3d89dff7330e9656f4bb64736f6c634300080d0033",
  "immutableReferences": {},
  "source": "// SPDX-License-Identifier: MIT\npragma solidity 0.8.13;\n\nimport \"@openzeppelin/contracts/access/AccessControl.sol\";\nimport \"./EIP712.sol\";\n\n// Since DAOs smart contract need to be unchangable then i dont use upgradable proxy here\n// Normal DAO that support charity by transfer native EVM token to address\n// Voting power based on the native amount the contributer given the smart contract\ncontract DAO_NFT is AccessControl, EIP712 {\n    \n    bytes32 public constant VOTE_PROPOSAL_TYPEHASH =\n        keccak256(\"voteProposal(uint256 proposalId,address voter,bool supportProposal,uint256 voteValue)\");\n\n\n    bytes32 public constant GOVERNOR_ROLE = keccak256(\"GOVERNOR\");\n    uint256 public constant minAmountGovernor = 10; // Need to stake more than 10 native to become governor\n    uint32 constant minimumVotingPeriod = 2 weeks;\n\n    uint256 public governanceProposalNonce;\n    uint256 public charityProposalNonce;\n    uint256 public governanceStaked;\n    uint256 public availableBalance;\n    uint256 public totalContribution;\n    uint256 public totalContributors;\n    uint256 public pendingBalance;\n    uint256 public numOfProposals;\n    uint256 public totalGovernors;\n    uint8 private threshold = 66; // Need to reach this percentage of aggrement ending vote automatically\n    uint8 private maxSingleVotePercentage = 10; // if they contributes morethan 10% of the totalContribution their vote is worth at max 10 percent\n    uint8 private minimumNeedToReachWhenEnding = 33; // Minimum need to reach when voting period end\n\n    // For governance election\n    struct GovernanceProposal{\n        uint256 id;\n        address candidateAddress;\n        uint256 livePeriod;\n        uint256 votesFor;\n        uint256 countVotesFor;\n        uint256 votesAgainst;\n        uint256 countVotesAgainst;\n        string description;\n        bool finished;\n        address proposer;\n        bool votingPassed;\n    }\n\n    // For doing charity\n    struct CharityProposal {\n        uint256 id;\n        uint256 amount;\n        uint256 livePeriod;\n        uint256 votesFor;\n        uint256 countVotesFor;\n        uint256 votesAgainst;\n        uint256 countVotesAgainst;\n        uint256 totalVoted;\n        string description;\n        address payable charityAddress;\n        address proposer;\n        address governor;\n        bool finished;\n        bool votingPassed;\n    }\n    mapping(uint256 => GovernanceProposal) private governanceProposals;\n    mapping(uint256 => CharityProposal) private charityProposals;\n    mapping(address => uint256) private contributors;\n    mapping(address => uint256) private governors;\n\n    mapping(address => mapping(uint256 => bool)) public voteHolder;\n\n    \n    // // mapping(address => uint256) private stakeholders;\n    event ContributionReceived(address fromAddress, uint256 amount);\n    // event governorAdded(address governor, uint256 stakedAmount);\n\n    // // event addGovernanceProposal(address )\n    event NewCharityProposal(uint256 proposalId, address indexed proposer, uint256 amount);\n    event CharityPropsalFinish(\n        uint256 indexed proposalId,\n        address indexed receiverAddress,\n        uint256 amount,\n        bool votingPassed\n    );\n    event PropsalTransfered(\n        uint256 indexed proposalId,\n        address indexed receiverAddress,\n        uint256 amount\n    );\n    \n    modifier onlyGovernor(string memory message){\n        // require(hasR);\n        require(hasRole(GOVERNOR_ROLE, msg.sender), message);\n        _;\n    }\n    modifier notGovernor(string memory message){\n        // require(hasR);\n        require(!hasRole(GOVERNOR_ROLE, msg.sender), message);\n        _;\n    }\n\n    modifier votable(uint256 proposalId){\n        CharityProposal storage proposal = charityProposals[proposalId];\n        require(voteHolder[msg.sender][proposalId] == false, 'Already voted');\n        require(proposal.livePeriod > block.timestamp, \"Voting Ended\");\n        require(!proposal.finished, \"Already finished\");\n        _;\n    }\n    // modifier onlyStakeholder(string memory message) {\n    //     require(hasRole(STAKEHOLDER_ROLE, msg.sender), message);\n    //     _;\n    // }\n\n    modifier onlyContributor(string memory message) {\n        require(contributors[msg.sender] > 0, message);\n        _;\n    }\n\n    modifier canFinish(uint256 proposalId){\n        CharityProposal storage proposal = charityProposals[proposalId];\n        require(proposal.livePeriod < block.timestamp, \"Not finish yet\");\n        require(!proposal.finished, \"Already finished\");\n        _;\n    }\n\n    function _createHash(bytes32 functionHash, uint256 proposalId, address voter, bool supportProposal, uint256 voteValue) private view returns (bytes32 _hash){\n        _hash = _hashTypedDataV4(\n            keccak256(abi.encode(functionHash, proposalId, voter, supportProposal, voteValue))\n        );\n    }\n    function _recoverAddress(bytes32 _hash, bytes memory signature) private view returns (address user){\n        user = ECDSA.recover(_hash, signature);\n    }\n    \n    // check if it pass certain amount of governance signature\n    modifier isValidSigArray(bytes32 functionHash, uint256 proposalId, address voter, bool supportProposal, uint256 voteValue, bytes[] memory signatures){\n        // Check dublicate\n        require(\n            signatures.length > 0,\n            \"signatures array is empty\"\n        );\n\n        require(\n            (signatures.length * 100) / totalGovernors >= threshold,\n            \"Threshold not reached\"\n        );\n        \n        if (signatures.length >= 2) {\n            for (uint256 i = 0; i < signatures.length; i++) {\n                for (uint256 j = i + 1; j < signatures.length; j++) {\n                    require(\n                        keccak256(\n                            abi.encodePacked(signatures[i])\n                        ) !=\n                            keccak256(\n                                abi.encodePacked(signatures[j])\n                            ),\n                        \"Can not be the same signature\"\n                    );\n                }\n            }\n        }\n\n        // validate signatures\n        for(uint256 i = 0; i < signatures.length; i++){\n            require(\n                governors[\n                    _recoverAddress(_createHash(functionHash, proposalId, voter, supportProposal, voteValue), signatures[i])\n                ] > 0,\n                \"A signature is not from governor\"\n            );\n        }\n\n        _;\n    }\n\n    constructor() public{\n        __EIP712Upgradeable_init(\"DAO\", \"0.0.1\");\n\n        // Todo: add your configuration in here\n\n    }\n\n    // throw when  receiving random ether\n    receive() external payable {\n        revert();\n    }\n    fallback() external payable{\n        revert();\n    }\n\n    // stake to become governor\n    function stakeGovernor(uint256 amount) \n    external payable\n    notGovernor(\"Already the governor!!!\")\n    {\n        require(msg.value == amount, \"Native token send not equal to amount\");\n        require(amount > minAmountGovernor * 10**18, \"Staked token has to be more than min amount\");\n        governors[msg.sender] = amount;\n        governanceStaked += amount;\n        _setupRole(GOVERNOR_ROLE, msg.sender);\n    }\n\n    function contribute(uint amount) external payable{\n        require(msg.value == amount, \"Native token send not equal to amount\");\n        require(msg.value > 10**16, \"Need to contribute more than 0.01\");\n        availableBalance += amount;\n        if(contributors[msg.sender] == 0){\n            totalContributors += 1;\n        }\n        contributors[msg.sender] += amount;\n        totalContribution += amount;\n        emit ContributionReceived(msg.sender, msg.value);\n\n    }\n\n\n    function createProposal(\n        string calldata description,\n        address charityAddress,\n        uint256 amount\n    )\n        external\n        onlyContributor(\"Only contributors are allowed to create proposals\")\n    {\n        require(availableBalance - pendingBalance > amount, \"could not create any charity proposal due to inefficient balance\");\n        uint256 proposalId = charityProposalNonce++;\n        CharityProposal storage proposal = charityProposals[proposalId];\n        proposal.id = proposalId;\n        proposal.proposer = payable(msg.sender);\n        proposal.description = description;\n        proposal.charityAddress = payable(charityAddress);\n        proposal.amount = amount;\n        proposal.livePeriod = block.timestamp + minimumVotingPeriod;\n\n        pendingBalance += amount;\n\n        emit NewCharityProposal(proposalId, msg.sender, amount);\n    }\n\n    function voteProposal(uint256 proposalId, address voter, bool supportProposal, uint256 voteValue, bytes[] memory signatures)\n        external\n        onlyContributor(\"Only contributors are allowed to vote\")\n        votable(proposalId)\n        isValidSigArray(VOTE_PROPOSAL_TYPEHASH, proposalId, voter, supportProposal, voteValue, signatures)\n    {\n        _voteProposal(proposalId, supportProposal, voteValue);\n    }\n\n    function _voteProposal(uint256 proposalId, bool supportProposal, uint256 voteValue) private{\n        CharityProposal storage proposal = charityProposals[proposalId];\n\n        if (supportProposal){\n            proposal.votesFor += voteValue;\n        }\n        else{\n            proposal.votesAgainst += voteValue;\n        } \n\n        voteHolder[msg.sender][proposalId] = true;\n    }\n\n    function finishProposal(uint256 proposalId)\n        external\n        canFinish(proposalId)\n        onlyGovernor(\"Only gonvernors are allowed to make payments\")\n    {   \n        // Finish if it has reached certain threshold or at the end end of the live period \n        CharityProposal storage proposal = charityProposals[proposalId];\n        uint256 valueTransfer = 0;\n        // Todo: update more secured algorithm\n        if( proposal.votesFor > proposal.votesAgainst )\n        {\n            emit PropsalTransfered(proposalId, proposal.charityAddress, proposal.amount);\n            emit CharityPropsalFinish(proposalId, proposal.charityAddress, proposal.amount, true);\n            valueTransfer = proposal.amount;\n        }\n        else{\n            emit CharityPropsalFinish(proposalId, proposal.charityAddress, 0, false);\n        }\n        pendingBalance -= proposal.amount;\n\n        proposal.finished = true;\n        proposal.governor = msg.sender;\n\n        if(valueTransfer > 0){\n            proposal.charityAddress.transfer(valueTransfer);\n            availableBalance -= valueTransfer;\n        }\n    }\n\n    function getProposals()\n        public\n        view\n        returns (CharityProposal[] memory props)\n    {\n        props = new CharityProposal[](numOfProposals);\n\n        for (uint256 index = 0; index < numOfProposals; index++) {\n            props[index] = charityProposals[index];\n        }\n    }\n\n    function getProposal(uint256 proposalId)\n        public\n        view\n        returns (CharityProposal memory)\n    {\n        return charityProposals[proposalId];\n    }\n\n    function isContributor(address user) public view returns (bool){\n\n        if(contributors[user] > 0) return true;\n        return false;\n    }\n\n\n    function hasVoted(address user, uint256 proposalId) public view returns (bool){\n        return voteHolder[user][proposalId];\n    }\n\n    function getContributionPercentageX100(address user) public view returns (uint256){\n        // percentage * 100, example: 4% => return 400\n        return contributors[user]*100*100/totalContribution;\n    }\n\n\n    // Todo\n    // Func Un-stake proposal when governor want to withdraw\n    // func Revoke governor proposal when governor has been doing someing bad and give all staked to charity pool\n    // func temporary disable governor when subspisous\n}",
  "sourcePath": "/home/sotatek/DaoNft/contracts/DAO_NFT.sol",
  "compiler": {
    "name": "solc",
    "version": "0.8.13+commit.abaa5c0e.Emscripten.clang"
  },
  "schemaVersion": "3.4.1",
  "updatedAt": "2022-05-01T17:44:55.685Z",
  "devdoc": {
    "kind": "dev",
    "methods": {
      "getRoleAdmin(bytes32)": {
        "details": "Returns the admin role that controls `role`. See {grantRole} and {revokeRole}. To change a role's admin, use {_setRoleAdmin}."
      },
      "grantRole(bytes32,address)": {
        "details": "Grants `role` to `account`. If `account` had not been already granted `role`, emits a {RoleGranted} event. Requirements: - the caller must have ``role``'s admin role."
      },
      "hasRole(bytes32,address)": {
        "details": "Returns `true` if `account` has been granted `role`."
      },
      "renounceRole(bytes32,address)": {
        "details": "Revokes `role` from the calling account. Roles are often managed via {grantRole} and {revokeRole}: this function's purpose is to provide a mechanism for accounts to lose their privileges if they are compromised (such as when a trusted device is misplaced). If the calling account had been revoked `role`, emits a {RoleRevoked} event. Requirements: - the caller must be `account`."
      },
      "revokeRole(bytes32,address)": {
        "details": "Revokes `role` from `account`. If `account` had been granted `role`, emits a {RoleRevoked} event. Requirements: - the caller must have ``role``'s admin role."
      },
      "supportsInterface(bytes4)": {
        "details": "See {IERC165-supportsInterface}."
      }
    },
    "version": 1
  },
  "userdoc": {
    "kind": "user",
    "methods": {},
    "version": 1
  }
}