{
  "contractName": "DAO_NFT",
  "abi": [
    {
      "anonymous": false,
      "inputs": [
        {
          "indexed": true,
          "internalType": "uint256",
          "name": "proposalId",
          "type": "uint256"
        },
        {
          "indexed": true,
          "internalType": "address",
          "name": "receiverAddress",
          "type": "address"
        },
        {
          "indexed": false,
          "internalType": "uint256",
          "name": "amount",
          "type": "uint256"
        },
        {
          "indexed": false,
          "internalType": "bool",
          "name": "votingPassed",
          "type": "bool"
        }
      ],
      "name": "CharityPropsalFinish",
      "type": "event"
    },
    {
      "anonymous": false,
      "inputs": [
        {
          "indexed": false,
          "internalType": "address",
          "name": "fromAddress",
          "type": "address"
        },
        {
          "indexed": false,
          "internalType": "uint256",
          "name": "amount",
          "type": "uint256"
        }
      ],
      "name": "ContributionReceived",
      "type": "event"
    },
    {
      "anonymous": false,
      "inputs": [
        {
          "indexed": false,
          "internalType": "uint256",
          "name": "proposalId",
          "type": "uint256"
        },
        {
          "indexed": true,
          "internalType": "address",
          "name": "proposer",
          "type": "address"
        },
        {
          "indexed": false,
          "internalType": "uint256",
          "name": "amount",
          "type": "uint256"
        }
      ],
      "name": "NewCharityProposal",
      "type": "event"
    },
    {
      "anonymous": false,
      "inputs": [
        {
          "indexed": true,
          "internalType": "uint256",
          "name": "proposalId",
          "type": "uint256"
        },
        {
          "indexed": true,
          "internalType": "address",
          "name": "receiverAddress",
          "type": "address"
        },
        {
          "indexed": false,
          "internalType": "uint256",
          "name": "amount",
          "type": "uint256"
        }
      ],
      "name": "PropsalTransfered",
      "type": "event"
    },
    {
      "anonymous": false,
      "inputs": [
        {
          "indexed": true,
          "internalType": "bytes32",
          "name": "role",
          "type": "bytes32"
        },
        {
          "indexed": true,
          "internalType": "bytes32",
          "name": "previousAdminRole",
          "type": "bytes32"
        },
        {
          "indexed": true,
          "internalType": "bytes32",
          "name": "newAdminRole",
          "type": "bytes32"
        }
      ],
      "name": "RoleAdminChanged",
      "type": "event"
    },
    {
      "anonymous": false,
      "inputs": [
        {
          "indexed": true,
          "internalType": "bytes32",
          "name": "role",
          "type": "bytes32"
        },
        {
          "indexed": true,
          "internalType": "address",
          "name": "account",
          "type": "address"
        },
        {
          "indexed": true,
          "internalType": "address",
          "name": "sender",
          "type": "address"
        }
      ],
      "name": "RoleGranted",
      "type": "event"
    },
    {
      "anonymous": false,
      "inputs": [
        {
          "indexed": true,
          "internalType": "bytes32",
          "name": "role",
          "type": "bytes32"
        },
        {
          "indexed": true,
          "internalType": "address",
          "name": "account",
          "type": "address"
        },
        {
          "indexed": true,
          "internalType": "address",
          "name": "sender",
          "type": "address"
        }
      ],
      "name": "RoleRevoked",
      "type": "event"
    },
    {
      "stateMutability": "payable",
      "type": "fallback"
    },
    {
      "inputs": [],
      "name": "DEFAULT_ADMIN_ROLE",
      "outputs": [
        {
          "internalType": "bytes32",
          "name": "",
          "type": "bytes32"
        }
      ],
      "stateMutability": "view",
      "type": "function"
    },
    {
      "inputs": [],
      "name": "GOVERNOR_ROLE",
      "outputs": [
        {
          "internalType": "bytes32",
          "name": "",
          "type": "bytes32"
        }
      ],
      "stateMutability": "view",
      "type": "function"
    },
    {
      "inputs": [],
      "name": "availableBalance",
      "outputs": [
        {
          "internalType": "uint256",
          "name": "",
          "type": "uint256"
        }
      ],
      "stateMutability": "view",
      "type": "function"
    },
    {
      "inputs": [],
      "name": "charityProposalNonce",
      "outputs": [
        {
          "internalType": "uint256",
          "name": "",
          "type": "uint256"
        }
      ],
      "stateMutability": "view",
      "type": "function"
    },
    {
      "inputs": [
        {
          "internalType": "bytes32",
          "name": "role",
          "type": "bytes32"
        }
      ],
      "name": "getRoleAdmin",
      "outputs": [
        {
          "internalType": "bytes32",
          "name": "",
          "type": "bytes32"
        }
      ],
      "stateMutability": "view",
      "type": "function"
    },
    {
      "inputs": [],
      "name": "governanceProposalNonce",
      "outputs": [
        {
          "internalType": "uint256",
          "name": "",
          "type": "uint256"
        }
      ],
      "stateMutability": "view",
      "type": "function"
    },
    {
      "inputs": [],
      "name": "governanceStaked",
      "outputs": [
        {
          "internalType": "uint256",
          "name": "",
          "type": "uint256"
        }
      ],
      "stateMutability": "view",
      "type": "function"
    },
    {
      "inputs": [
        {
          "internalType": "bytes32",
          "name": "role",
          "type": "bytes32"
        },
        {
          "internalType": "address",
          "name": "account",
          "type": "address"
        }
      ],
      "name": "grantRole",
      "outputs": [],
      "stateMutability": "nonpayable",
      "type": "function"
    },
    {
      "inputs": [
        {
          "internalType": "bytes32",
          "name": "role",
          "type": "bytes32"
        },
        {
          "internalType": "address",
          "name": "account",
          "type": "address"
        }
      ],
      "name": "hasRole",
      "outputs": [
        {
          "internalType": "bool",
          "name": "",
          "type": "bool"
        }
      ],
      "stateMutability": "view",
      "type": "function"
    },
    {
      "inputs": [],
      "name": "minAmountGovernor",
      "outputs": [
        {
          "internalType": "uint256",
          "name": "",
          "type": "uint256"
        }
      ],
      "stateMutability": "view",
      "type": "function"
    },
    {
      "inputs": [],
      "name": "pendingBalance",
      "outputs": [
        {
          "internalType": "uint256",
          "name": "",
          "type": "uint256"
        }
      ],
      "stateMutability": "view",
      "type": "function"
    },
    {
      "inputs": [
        {
          "internalType": "bytes32",
          "name": "role",
          "type": "bytes32"
        },
        {
          "internalType": "address",
          "name": "account",
          "type": "address"
        }
      ],
      "name": "renounceRole",
      "outputs": [],
      "stateMutability": "nonpayable",
      "type": "function"
    },
    {
      "inputs": [
        {
          "internalType": "bytes32",
          "name": "role",
          "type": "bytes32"
        },
        {
          "internalType": "address",
          "name": "account",
          "type": "address"
        }
      ],
      "name": "revokeRole",
      "outputs": [],
      "stateMutability": "nonpayable",
      "type": "function"
    },
    {
      "inputs": [
        {
          "internalType": "bytes4",
          "name": "interfaceId",
          "type": "bytes4"
        }
      ],
      "name": "supportsInterface",
      "outputs": [
        {
          "internalType": "bool",
          "name": "",
          "type": "bool"
        }
      ],
      "stateMutability": "view",
      "type": "function"
    },
    {
      "inputs": [],
      "name": "totalContribution",
      "outputs": [
        {
          "internalType": "uint256",
          "name": "",
          "type": "uint256"
        }
      ],
      "stateMutability": "view",
      "type": "function"
    },
    {
      "inputs": [],
      "name": "totalContributors",
      "outputs": [
        {
          "internalType": "uint256",
          "name": "",
          "type": "uint256"
        }
      ],
      "stateMutability": "view",
      "type": "function"
    },
    {
      "inputs": [
        {
          "internalType": "address",
          "name": "",
          "type": "address"
        },
        {
          "internalType": "uint256",
          "name": "",
          "type": "uint256"
        }
      ],
      "name": "voteHolder",
      "outputs": [
        {
          "internalType": "bool",
          "name": "",
          "type": "bool"
        }
      ],
      "stateMutability": "view",
      "type": "function"
    },
    {
      "stateMutability": "payable",
      "type": "receive"
    },
    {
      "inputs": [
        {
          "internalType": "uint256",
          "name": "amount",
          "type": "uint256"
        }
      ],
      "name": "stakeGovernor",
      "outputs": [],
      "stateMutability": "payable",
      "type": "function"
    },
    {
      "inputs": [
        {
          "internalType": "uint256",
          "name": "amount",
          "type": "uint256"
        }
      ],
      "name": "contribute",
      "outputs": [],
      "stateMutability": "payable",
      "type": "function"
    },
    {
      "inputs": [
        {
          "internalType": "string",
          "name": "description",
          "type": "string"
        },
        {
          "internalType": "address",
          "name": "charityAddress",
          "type": "address"
        },
        {
          "internalType": "uint256",
          "name": "amount",
          "type": "uint256"
        }
      ],
      "name": "createProposal",
      "outputs": [],
      "stateMutability": "nonpayable",
      "type": "function"
    },
    {
      "inputs": [
        {
          "internalType": "uint256",
          "name": "proposalId",
          "type": "uint256"
        },
        {
          "internalType": "bool",
          "name": "supportProposal",
          "type": "bool"
        }
      ],
      "name": "voteProposal",
      "outputs": [],
      "stateMutability": "nonpayable",
      "type": "function"
    },
    {
      "inputs": [
        {
          "internalType": "uint256",
          "name": "proposalId",
          "type": "uint256"
        }
      ],
      "name": "finishProposal",
      "outputs": [],
      "stateMutability": "nonpayable",
      "type": "function"
    }
  ],
  "bytecode": "0x60806040526042600860006101000a81548160ff021916908360ff160217905550600a600860016101000a81548160ff021916908360ff1602179055506021600860026101000a81548160ff021916908360ff16021790555034801561006457600080fd5b50612a01806100746000396000f3fe6080604052600436106101395760003560e01c8063a217fddf116100ab578063c1cbbca71161006f578063c1cbbca714610427578063cb5cdf4114610443578063ccc574901461046e578063d547741f14610499578063f251fc8c146104c2578063f6fe877a146104ed57610143565b8063a217fddf14610361578063aa6b17b11461038c578063ab2f0e51146103b7578063bcfb9b61146103e2578063bf0955f81461040b57610143565b806336568abe116100fd57806336568abe1461023f57806357b4d18e146102685780638101b52e14610293578063831c43ac146102d0578063837422f9146102f957806391d148541461032457610143565b806301ffc9a7146101485780630dcf4b8f14610185578063248a9ca3146101b057806327393278146101ed5780632f2ff15d1461021657610143565b3661014357600080fd5b600080fd5b34801561015457600080fd5b5061016f600480360381019061016a9190611b50565b610518565b60405161017c9190611b98565b60405180910390f35b34801561019157600080fd5b5061019a610592565b6040516101a79190611bcc565b60405180910390f35b3480156101bc57600080fd5b506101d760048036038101906101d29190611c1d565b610598565b6040516101e49190611c59565b60405180910390f35b3480156101f957600080fd5b50610214600480360381019061020f9190611ca0565b6105b7565b005b34801561022257600080fd5b5061023d60048036038101906102389190611d2b565b610a23565b005b34801561024b57600080fd5b5061026660048036038101906102619190611d2b565b610a44565b005b34801561027457600080fd5b5061027d610ac7565b60405161028a9190611bcc565b60405180910390f35b34801561029f57600080fd5b506102ba60048036038101906102b59190611d6b565b610acd565b6040516102c79190611b98565b60405180910390f35b3480156102dc57600080fd5b506102f760048036038101906102f29190611e10565b610afc565b005b34801561030557600080fd5b5061030e610d59565b60405161031b9190611bcc565b60405180910390f35b34801561033057600080fd5b5061034b60048036038101906103469190611d2b565b610d5f565b6040516103589190611b98565b60405180910390f35b34801561036d57600080fd5b50610376610dc9565b6040516103839190611c59565b60405180910390f35b34801561039857600080fd5b506103a1610dd0565b6040516103ae9190611bcc565b60405180910390f35b3480156103c357600080fd5b506103cc610dd6565b6040516103d99190611bcc565b60405180910390f35b3480156103ee57600080fd5b5061040960048036038101906104049190611eb0565b610ddc565b005b61042560048036038101906104209190611ca0565b61114f565b005b610441600480360381019061043c9190611ca0565b611316565b005b34801561044f57600080fd5b506104586114c7565b6040516104659190611bcc565b60405180910390f35b34801561047a57600080fd5b506104836114cd565b6040516104909190611c59565b60405180910390f35b3480156104a557600080fd5b506104c060048036038101906104bb9190611d2b565b6114f1565b005b3480156104ce57600080fd5b506104d7611512565b6040516104e49190611bcc565b60405180910390f35b3480156104f957600080fd5b50610502611518565b60405161050f9190611bcc565b60405180910390f35b60007f7965db0b000000000000000000000000000000000000000000000000000000007bffffffffffffffffffffffffffffffffffffffffffffffffffffffff1916827bffffffffffffffffffffffffffffffffffffffffffffffffffffffff1916148061058b575061058a8261151d565b5b9050919050565b60055481565b6000806000838152602001908152602001600020600101549050919050565b806000600a6000838152602001908152602001600020905042816002015410610615576040517f08c379a000000000000000000000000000000000000000000000000000000000815260040161060c90611f4d565b60405180910390fd5b80600b0160149054906101000a900460ff1615610667576040517f08c379a000000000000000000000000000000000000000000000000000000000815260040161065e90611fb9565b60405180910390fd5b6040518060600160405280602c815260200161294a602c91396106aa7f1a6838efa4183e08fe3607359d1259272af9d4716f65e1a7b5921f78fd5a3c6a33610d5f565b81906106ec576040517f08c379a00000000000000000000000000000000000000000000000000000000081526004016106e39190612061565b60405180910390fd5b506000600a6000868152602001908152602001600020905060008160050154826003015411801561074b5750600860009054906101000a900460ff1660ff166064600554846003015461073f91906120e1565b6107499190612112565b115b806107975750816006015482600401541180156107965750600860029054906101000a900460ff1660ff166064600654846004015461078a91906120e1565b6107949190612112565b115b5b15610899578160090160009054906101000a900473ffffffffffffffffffffffffffffffffffffffff1673ffffffffffffffffffffffffffffffffffffffff16867fa88c7d9be431a25f12fc380c50738a5aecc2d2415bc734416cb02a8bb04a5a3a846001015460405161080b9190611bcc565b60405180910390a38160090160009054906101000a900473ffffffffffffffffffffffffffffffffffffffff1673ffffffffffffffffffffffffffffffffffffffff16867fbc764f54747b510d1e265b3e5dd7dc99c81e668c7a4e232ea8c0df35402a22258460010154600160405161088592919061216c565b60405180910390a381600101549050610910565b8160090160009054906101000a900473ffffffffffffffffffffffffffffffffffffffff1673ffffffffffffffffffffffffffffffffffffffff16867fbc764f54747b510d1e265b3e5dd7dc99c81e668c7a4e232ea8c0df35402a22256000806040516109079291906121da565b60405180910390a35b8160010154600760008282546109269190612203565b92505081905550600182600b0160146101000a81548160ff0219169083151502179055503382600b0160006101000a81548173ffffffffffffffffffffffffffffffffffffffff021916908373ffffffffffffffffffffffffffffffffffffffff1602179055506000811115610a1b578160090160009054906101000a900473ffffffffffffffffffffffffffffffffffffffff1673ffffffffffffffffffffffffffffffffffffffff166108fc829081150290604051600060405180830381858888f19350505050158015610a00573d6000803e3d6000fd5b508060046000828254610a139190612203565b925050819055505b505050505050565b610a2c82610598565b610a3581611587565b610a3f838361159b565b505050565b610a4c61167b565b73ffffffffffffffffffffffffffffffffffffffff168173ffffffffffffffffffffffffffffffffffffffff1614610ab9576040517f08c379a0000000000000000000000000000000000000000000000000000000008152600401610ab0906122a9565b60405180910390fd5b610ac38282611683565b5050565b60075481565b600d6020528160005260406000206020528060005260406000206000915091509054906101000a900460ff1681565b60405180606001604052806031815260200161299b603191396000600b60003373ffffffffffffffffffffffffffffffffffffffff1673ffffffffffffffffffffffffffffffffffffffff16815260200190815260200160002054118190610b9a576040517f08c379a0000000000000000000000000000000000000000000000000000000008152600401610b919190612061565b60405180910390fd5b5081600754600454610bac9190612203565b11610bec576040517f08c379a0000000000000000000000000000000000000000000000000000000008152600401610be39061233b565b60405180910390fd5b600060026000815480929190610c019061235b565b9190505590506000600a600083815260200190815260200160002090508181600001819055503381600a0160006101000a81548173ffffffffffffffffffffffffffffffffffffffff021916908373ffffffffffffffffffffffffffffffffffffffff1602179055508686826008019190610c7d929190611a4b565b50848160090160006101000a81548173ffffffffffffffffffffffffffffffffffffffff021916908373ffffffffffffffffffffffffffffffffffffffff1602179055508381600101819055506212750063ffffffff1642610cdf91906123a3565b81600201819055508360076000828254610cf991906123a3565b925050819055503373ffffffffffffffffffffffffffffffffffffffff167f609b4e281bd96e064f81eddd1d559b479db56aa1ba14e155718d20ccc905ff788386604051610d489291906123f9565b60405180910390a250505050505050565b60025481565b600080600084815260200190815260200160002060000160008373ffffffffffffffffffffffffffffffffffffffff1673ffffffffffffffffffffffffffffffffffffffff16815260200190815260200160002060009054906101000a900460ff16905092915050565b6000801b81565b60035481565b60045481565b604051806060016040528060258152602001612976602591396000600b60003373ffffffffffffffffffffffffffffffffffffffff1673ffffffffffffffffffffffffffffffffffffffff16815260200190815260200160002054118190610e7a576040517f08c379a0000000000000000000000000000000000000000000000000000000008152600401610e719190612061565b60405180910390fd5b50826000600a6000838152602001908152602001600020905060001515600d60003373ffffffffffffffffffffffffffffffffffffffff1673ffffffffffffffffffffffffffffffffffffffff168152602001908152602001600020600084815260200190815260200160002060009054906101000a900460ff16151514610f37576040517f08c379a0000000000000000000000000000000000000000000000000000000008152600401610f2e9061246e565b60405180910390fd5b42816002015411610f7d576040517f08c379a0000000000000000000000000000000000000000000000000000000008152600401610f74906124da565b60405180910390fd5b80600b0160149054906101000a900460ff1615610fcf576040517f08c379a0000000000000000000000000000000000000000000000000000000008152600401610fc690611fb9565b60405180910390fd5b6000600a600087815260200190815260200160002090506000600b60003373ffffffffffffffffffffffffffffffffffffffff1673ffffffffffffffffffffffffffffffffffffffff16815260200190815260200160002054905060006064600860019054906101000a900460ff1660ff1660055461104e9190612112565b61105891906120e1565b905080821115611066578091505b86156110a6578183600301600082825461108091906123a3565b9250508190555082600401600081548092919061109c9061235b565b91905055506110dc565b818360050160008282546110ba91906123a3565b925050819055508260060160008154809291906110d69061235b565b91905055505b6001600d60003373ffffffffffffffffffffffffffffffffffffffff1673ffffffffffffffffffffffffffffffffffffffff16815260200190815260200160002060008a815260200190815260200160002060006101000a81548160ff0219169083151502179055505050505050505050565b6040518060400160405280601781526020017f416c72656164792074686520676f7665726e6f722121210000000000000000008152506111af7f1a6838efa4183e08fe3607359d1259272af9d4716f65e1a7b5921f78fd5a3c6a33610d5f565b1581906111f2576040517f08c379a00000000000000000000000000000000000000000000000000000000081526004016111e99190612061565b60405180910390fd5b50813414611235576040517f08c379a000000000000000000000000000000000000000000000000000000000815260040161122c9061256c565b60405180910390fd5b670de0b6b3a7640000600a61124a9190612112565b821161128b576040517f08c379a0000000000000000000000000000000000000000000000000000000008152600401611282906125fe565b60405180910390fd5b81600c60003373ffffffffffffffffffffffffffffffffffffffff1673ffffffffffffffffffffffffffffffffffffffff1681526020019081526020016000208190555081600360008282546112e191906123a3565b925050819055506113127f1a6838efa4183e08fe3607359d1259272af9d4716f65e1a7b5921f78fd5a3c6a33611764565b5050565b803414611358576040517f08c379a000000000000000000000000000000000000000000000000000000000815260040161134f9061256c565b60405180910390fd5b662386f26fc1000034116113a1576040517f08c379a000000000000000000000000000000000000000000000000000000000815260040161139890612690565b60405180910390fd5b80600460008282546113b391906123a3565b925050819055506000600b60003373ffffffffffffffffffffffffffffffffffffffff1673ffffffffffffffffffffffffffffffffffffffff168152602001908152602001600020540361141c5760016006600082825461141491906123a3565b925050819055505b80600b60003373ffffffffffffffffffffffffffffffffffffffff1673ffffffffffffffffffffffffffffffffffffffff168152602001908152602001600020600082825461146b91906123a3565b92505081905550806005600082825461148491906123a3565b925050819055507f1bb460ccaaf70fbacfec17a376f8acbd278c1405590ffcc8ebe4b88daf4f64ad33346040516114bc9291906126bf565b60405180910390a150565b60015481565b7f1a6838efa4183e08fe3607359d1259272af9d4716f65e1a7b5921f78fd5a3c6a81565b6114fa82610598565b61150381611587565b61150d8383611683565b505050565b60065481565b600a81565b60007f01ffc9a7000000000000000000000000000000000000000000000000000000007bffffffffffffffffffffffffffffffffffffffffffffffffffffffff1916827bffffffffffffffffffffffffffffffffffffffffffffffffffffffff1916149050919050565b6115988161159361167b565b611772565b50565b6115a58282610d5f565b61167757600160008084815260200190815260200160002060000160008373ffffffffffffffffffffffffffffffffffffffff1673ffffffffffffffffffffffffffffffffffffffff16815260200190815260200160002060006101000a81548160ff02191690831515021790555061161c61167b565b73ffffffffffffffffffffffffffffffffffffffff168173ffffffffffffffffffffffffffffffffffffffff16837f2f8788117e7eff1d82e926ec794901d17c78024a50270940304540a733656f0d60405160405180910390a45b5050565b600033905090565b61168d8282610d5f565b1561176057600080600084815260200190815260200160002060000160008373ffffffffffffffffffffffffffffffffffffffff1673ffffffffffffffffffffffffffffffffffffffff16815260200190815260200160002060006101000a81548160ff02191690831515021790555061170561167b565b73ffffffffffffffffffffffffffffffffffffffff168173ffffffffffffffffffffffffffffffffffffffff16837ff6391f5c32d9c69d2a47ea670b442974b53935d1edc7fd64eb21e047a839171b60405160405180910390a45b5050565b61176e828261159b565b5050565b61177c8282610d5f565b61180b576117a18173ffffffffffffffffffffffffffffffffffffffff16601461180f565b6117af8360001c602061180f565b6040516020016117c09291906127bc565b6040516020818303038152906040526040517f08c379a00000000000000000000000000000000000000000000000000000000081526004016118029190612061565b60405180910390fd5b5050565b6060600060028360026118229190612112565b61182c91906123a3565b67ffffffffffffffff811115611845576118446127f6565b5b6040519080825280601f01601f1916602001820160405280156118775781602001600182028036833780820191505090505b5090507f3000000000000000000000000000000000000000000000000000000000000000816000815181106118af576118ae612825565b5b60200101907effffffffffffffffffffffffffffffffffffffffffffffffffffffffffffff1916908160001a9053507f78000000000000000000000000000000000000000000000000000000000000008160018151811061191357611912612825565b5b60200101907effffffffffffffffffffffffffffffffffffffffffffffffffffffffffffff1916908160001a905350600060018460026119539190612112565b61195d91906123a3565b90505b60018111156119fd577f3031323334353637383961626364656600000000000000000000000000000000600f86166010811061199f5761199e612825565b5b1a60f81b8282815181106119b6576119b5612825565b5b60200101907effffffffffffffffffffffffffffffffffffffffffffffffffffffffffffff1916908160001a905350600485901c9450806119f690612854565b9050611960565b5060008414611a41576040517f08c379a0000000000000000000000000000000000000000000000000000000008152600401611a38906128c9565b60405180910390fd5b8091505092915050565b828054611a5790612918565b90600052602060002090601f016020900481019282611a795760008555611ac0565b82601f10611a9257803560ff1916838001178555611ac0565b82800160010185558215611ac0579182015b82811115611abf578235825591602001919060010190611aa4565b5b509050611acd9190611ad1565b5090565b5b80821115611aea576000816000905550600101611ad2565b5090565b600080fd5b600080fd5b60007fffffffff0000000000000000000000000000000000000000000000000000000082169050919050565b611b2d81611af8565b8114611b3857600080fd5b50565b600081359050611b4a81611b24565b92915050565b600060208284031215611b6657611b65611aee565b5b6000611b7484828501611b3b565b91505092915050565b60008115159050919050565b611b9281611b7d565b82525050565b6000602082019050611bad6000830184611b89565b92915050565b6000819050919050565b611bc681611bb3565b82525050565b6000602082019050611be16000830184611bbd565b92915050565b6000819050919050565b611bfa81611be7565b8114611c0557600080fd5b50565b600081359050611c1781611bf1565b92915050565b600060208284031215611c3357611c32611aee565b5b6000611c4184828501611c08565b91505092915050565b611c5381611be7565b82525050565b6000602082019050611c6e6000830184611c4a565b92915050565b611c7d81611bb3565b8114611c8857600080fd5b50565b600081359050611c9a81611c74565b92915050565b600060208284031215611cb657611cb5611aee565b5b6000611cc484828501611c8b565b91505092915050565b600073ffffffffffffffffffffffffffffffffffffffff82169050919050565b6000611cf882611ccd565b9050919050565b611d0881611ced565b8114611d1357600080fd5b50565b600081359050611d2581611cff565b92915050565b60008060408385031215611d4257611d41611aee565b5b6000611d5085828601611c08565b9250506020611d6185828601611d16565b9150509250929050565b60008060408385031215611d8257611d81611aee565b5b6000611d9085828601611d16565b9250506020611da185828601611c8b565b9150509250929050565b600080fd5b600080fd5b600080fd5b60008083601f840112611dd057611dcf611dab565b5b8235905067ffffffffffffffff811115611ded57611dec611db0565b5b602083019150836001820283011115611e0957611e08611db5565b5b9250929050565b60008060008060608587031215611e2a57611e29611aee565b5b600085013567ffffffffffffffff811115611e4857611e47611af3565b5b611e5487828801611dba565b94509450506020611e6787828801611d16565b9250506040611e7887828801611c8b565b91505092959194509250565b611e8d81611b7d565b8114611e9857600080fd5b50565b600081359050611eaa81611e84565b92915050565b60008060408385031215611ec757611ec6611aee565b5b6000611ed585828601611c8b565b9250506020611ee685828601611e9b565b9150509250929050565b600082825260208201905092915050565b7f4e6f742066696e69736820796574000000000000000000000000000000000000600082015250565b6000611f37600e83611ef0565b9150611f4282611f01565b602082019050919050565b60006020820190508181036000830152611f6681611f2a565b9050919050565b7f416c72656164792066696e697368656400000000000000000000000000000000600082015250565b6000611fa3601083611ef0565b9150611fae82611f6d565b602082019050919050565b60006020820190508181036000830152611fd281611f96565b9050919050565b600081519050919050565b60005b83811015612002578082015181840152602081019050611fe7565b83811115612011576000848401525b50505050565b6000601f19601f8301169050919050565b600061203382611fd9565b61203d8185611ef0565b935061204d818560208601611fe4565b61205681612017565b840191505092915050565b6000602082019050818103600083015261207b8184612028565b905092915050565b7f4e487b7100000000000000000000000000000000000000000000000000000000600052601260045260246000fd5b7f4e487b7100000000000000000000000000000000000000000000000000000000600052601160045260246000fd5b60006120ec82611bb3565b91506120f783611bb3565b92508261210757612106612083565b5b828204905092915050565b600061211d82611bb3565b915061212883611bb3565b9250817fffffffffffffffffffffffffffffffffffffffffffffffffffffffffffffffff0483118215151615612161576121606120b2565b5b828202905092915050565b60006040820190506121816000830185611bbd565b61218e6020830184611b89565b9392505050565b6000819050919050565b6000819050919050565b60006121c46121bf6121ba84612195565b61219f565b611bb3565b9050919050565b6121d4816121a9565b82525050565b60006040820190506121ef60008301856121cb565b6121fc6020830184611b89565b9392505050565b600061220e82611bb3565b915061221983611bb3565b92508282101561222c5761222b6120b2565b5b828203905092915050565b7f416363657373436f6e74726f6c3a2063616e206f6e6c792072656e6f756e636560008201527f20726f6c657320666f722073656c660000000000000000000000000000000000602082015250565b6000612293602f83611ef0565b915061229e82612237565b604082019050919050565b600060208201905081810360008301526122c281612286565b9050919050565b7f636f756c64206e6f742063726561746520616e7920636861726974792070726f60008201527f706f73616c2064756520746f20696e656666696369656e742062616c616e6365602082015250565b6000612325604083611ef0565b9150612330826122c9565b604082019050919050565b6000602082019050818103600083015261235481612318565b9050919050565b600061236682611bb3565b91507fffffffffffffffffffffffffffffffffffffffffffffffffffffffffffffffff8203612398576123976120b2565b5b600182019050919050565b60006123ae82611bb3565b91506123b983611bb3565b9250827fffffffffffffffffffffffffffffffffffffffffffffffffffffffffffffffff038211156123ee576123ed6120b2565b5b828201905092915050565b600060408201905061240e6000830185611bbd565b61241b6020830184611bbd565b9392505050565b7f416c726561647920766f74656400000000000000000000000000000000000000600082015250565b6000612458600d83611ef0565b915061246382612422565b602082019050919050565b600060208201905081810360008301526124878161244b565b9050919050565b7f566f74696e6720456e6465640000000000000000000000000000000000000000600082015250565b60006124c4600c83611ef0565b91506124cf8261248e565b602082019050919050565b600060208201905081810360008301526124f3816124b7565b9050919050565b7f4e617469766520746f6b656e2073656e64206e6f7420657175616c20746f206160008201527f6d6f756e74000000000000000000000000000000000000000000000000000000602082015250565b6000612556602583611ef0565b9150612561826124fa565b604082019050919050565b6000602082019050818103600083015261258581612549565b9050919050565b7f5374616b656420746f6b656e2068617320746f206265206d6f7265207468616e60008201527f206d696e20616d6f756e74000000000000000000000000000000000000000000602082015250565b60006125e8602b83611ef0565b91506125f38261258c565b604082019050919050565b60006020820190508181036000830152612617816125db565b9050919050565b7f4e65656420746f20636f6e74726962757465206d6f7265207468616e20302e3060008201527f3100000000000000000000000000000000000000000000000000000000000000602082015250565b600061267a602183611ef0565b91506126858261261e565b604082019050919050565b600060208201905081810360008301526126a98161266d565b9050919050565b6126b981611ced565b82525050565b60006040820190506126d460008301856126b0565b6126e16020830184611bbd565b9392505050565b600081905092915050565b7f416363657373436f6e74726f6c3a206163636f756e7420000000000000000000600082015250565b60006127296017836126e8565b9150612734826126f3565b601782019050919050565b600061274a82611fd9565b61275481856126e8565b9350612764818560208601611fe4565b80840191505092915050565b7f206973206d697373696e6720726f6c6520000000000000000000000000000000600082015250565b60006127a66011836126e8565b91506127b182612770565b601182019050919050565b60006127c78261271c565b91506127d3828561273f565b91506127de82612799565b91506127ea828461273f565b91508190509392505050565b7f4e487b7100000000000000000000000000000000000000000000000000000000600052604160045260246000fd5b7f4e487b7100000000000000000000000000000000000000000000000000000000600052603260045260246000fd5b600061285f82611bb3565b915060008203612872576128716120b2565b5b600182039050919050565b7f537472696e67733a20686578206c656e67746820696e73756666696369656e74600082015250565b60006128b3602083611ef0565b91506128be8261287d565b602082019050919050565b600060208201905081810360008301526128e2816128a6565b9050919050565b7f4e487b7100000000000000000000000000000000000000000000000000000000600052602260045260246000fd5b6000600282049050600182168061293057607f821691505b602082108103612943576129426128e9565b5b5091905056fe4f6e6c7920676f6e7665726e6f72732061726520616c6c6f77656420746f206d616b65207061796d656e74734f6e6c7920636f6e7472696275746f72732061726520616c6c6f77656420746f20766f74654f6e6c7920636f6e7472696275746f72732061726520616c6c6f77656420746f206372656174652070726f706f73616c73a2646970667358221220970990394c16e7cfd94f9438a3f8d43e32ee1a53513abc4c0a5c194f8eb5d5b364736f6c634300080d0033",
  "immutableReferences": {},
  "source": "// SPDX-License-Identifier: MIT\npragma solidity 0.8.13;\n\nimport \"@openzeppelin/contracts/access/AccessControl.sol\";\n\n// Since DAOs smart contract need to be unchangable then i dont use upgradable proxy here\n// Normal DAO that support charity by transfer native EVM token to address\n// Voting power based on the native amount the contributer given the smart contract\ncontract DAO_NFT is AccessControl {\n\n    bytes32 public constant GOVERNOR_ROLE = keccak256(\"GOVERNOR\");\n    uint256 public constant minAmountGovernor = 10; // Need to stake more than 10 native to become governor\n    uint32 constant minimumVotingPeriod = 2 weeks;\n\n    uint256 public governanceProposalNonce;\n    uint256 public charityProposalNonce;\n    uint256 public governanceStaked;\n    uint256 public availableBalance;\n    uint256 public totalContribution;\n    uint256 public totalContributors;\n    uint256 public pendingBalance;\n    \n    uint8 private theshold = 66; // Need to reach this percentage of aggrement ending vote automatically\n    uint8 private maxSingleVotePercentage = 10; // if they contributes morethan 10% of the totalContribution their vote is worth at max 10 percent\n    uint8 private minimumNeedToReachWhenEnding = 33; // Minimum need to reach when voting period end\n\n    // For governance election\n    struct GovernanceProposal{\n        uint256 id;\n        address candidateAddress;\n        uint256 livePeriod;\n        uint256 votesFor;\n        uint256 countVotesFor;\n        uint256 votesAgainst;\n        uint256 countVotesAgainst;\n        string description;\n        bool finished;\n        address proposer;\n        bool votingPassed;\n    }\n\n    // For doing charity\n    struct CharityProposal {\n        uint256 id;\n        uint256 amount;\n        uint256 livePeriod;\n        uint256 votesFor;\n        uint256 countVotesFor;\n        uint256 votesAgainst;\n        uint256 countVotesAgainst;\n        uint256 totalVoted;\n        string description;\n        address payable charityAddress;\n        address proposer;\n        address governor;\n        bool finished;\n        bool votingPassed;\n    }\n    mapping(uint256 => GovernanceProposal) private governanceProposals;\n    mapping(uint256 => CharityProposal) private charityProposals;\n    mapping(address => uint256) private contributors;\n    mapping(address => uint256) private governors;\n\n    mapping(address => mapping(uint256 => bool)) public voteHolder;\n\n    \n    // // mapping(address => uint256) private stakeholders;\n    event ContributionReceived(address fromAddress, uint256 amount);\n    // event governorAdded(address governor, uint256 stakedAmount);\n\n    // // event addGovernanceProposal(address )\n    event NewCharityProposal(uint256 proposalId, address indexed proposer, uint256 amount);\n    event CharityPropsalFinish(\n        uint256 indexed proposalId,\n        address indexed receiverAddress,\n        uint256 amount,\n        bool votingPassed\n    );\n    event PropsalTransfered(\n        uint256 indexed proposalId,\n        address indexed receiverAddress,\n        uint256 amount\n    );\n    \n    modifier onlyGovernor(string memory message){\n        // require(hasR);\n        require(hasRole(GOVERNOR_ROLE, msg.sender), message);\n        _;\n    }\n    modifier notGovernor(string memory message){\n        // require(hasR);\n        require(!hasRole(GOVERNOR_ROLE, msg.sender), message);\n        _;\n    }\n\n    modifier votable(uint256 proposalId){\n        CharityProposal storage proposal = charityProposals[proposalId];\n        require(voteHolder[msg.sender][proposalId] == false, 'Already voted');\n        require(proposal.livePeriod > block.timestamp, \"Voting Ended\");\n        require(!proposal.finished, \"Already finished\");\n        _;\n    }\n    // modifier onlyStakeholder(string memory message) {\n    //     require(hasRole(STAKEHOLDER_ROLE, msg.sender), message);\n    //     _;\n    // }\n\n    modifier onlyContributor(string memory message) {\n        require(contributors[msg.sender] > 0, message);\n        _;\n    }\n\n    modifier canFinish(uint256 proposalId){\n        CharityProposal storage proposal = charityProposals[proposalId];\n        require(proposal.livePeriod < block.timestamp, \"Not finish yet\");\n        require(!proposal.finished, \"Already finished\");\n        _;\n    }\n\n    // throw when  receiving random ether\n    receive() external payable {\n        revert();\n    }\n    fallback() external payable{\n        revert();\n    }\n\n    // stake to become governor\n    function stakeGovernor(uint256 amount) \n    external payable\n    notGovernor(\"Already the governor!!!\")\n    {\n        require(msg.value == amount, \"Native token send not equal to amount\");\n        require(amount > minAmountGovernor * 10**18, \"Staked token has to be more than min amount\");\n        governors[msg.sender] = amount;\n        governanceStaked += amount;\n        _setupRole(GOVERNOR_ROLE, msg.sender);\n    }\n\n    function contribute(uint amount) external payable{\n        require(msg.value == amount, \"Native token send not equal to amount\");\n        require(msg.value > 10**16, \"Need to contribute more than 0.01\");\n        availableBalance += amount;\n        if(contributors[msg.sender] == 0){\n            totalContributors += 1;\n        }\n        contributors[msg.sender] += amount;\n        totalContribution += amount;\n        emit ContributionReceived(msg.sender, msg.value);\n\n    }\n\n\n    function createProposal(\n        string calldata description,\n        address charityAddress,\n        uint256 amount\n    )\n        external\n        onlyContributor(\"Only contributors are allowed to create proposals\")\n    {\n        require(availableBalance - pendingBalance > amount, \"could not create any charity proposal due to inefficient balance\");\n        uint256 proposalId = charityProposalNonce++;\n        CharityProposal storage proposal = charityProposals[proposalId];\n        proposal.id = proposalId;\n        proposal.proposer = payable(msg.sender);\n        proposal.description = description;\n        proposal.charityAddress = payable(charityAddress);\n        proposal.amount = amount;\n        proposal.livePeriod = block.timestamp + minimumVotingPeriod;\n\n        pendingBalance += amount;\n\n        emit NewCharityProposal(proposalId, msg.sender, amount);\n    }\n\n    function voteProposal(uint256 proposalId, bool supportProposal)\n        external\n        onlyContributor(\"Only contributors are allowed to vote\")\n        votable(proposalId)\n    {\n        CharityProposal storage proposal = charityProposals[proposalId];\n\n        uint256 voteValue = contributors[msg.sender];\n        uint256 maxValue = totalContribution * maxSingleVotePercentage / 100;\n        if(voteValue > maxValue){\n            voteValue = maxValue;\n        }\n\n        if (supportProposal){\n            proposal.votesFor += voteValue;\n            proposal.countVotesFor++;\n        }\n        else{\n            proposal.votesAgainst += voteValue;\n            proposal.countVotesAgainst++;\n        } \n\n        voteHolder[msg.sender][proposalId] = true;\n    }\n\n    \n\n    function finishProposal(uint256 proposalId)\n        external\n        canFinish(proposalId)\n        onlyGovernor(\"Only gonvernors are allowed to make payments\")\n    {   \n        // Finish if it has reached certain threshold or at the end end of the live period \n        CharityProposal storage proposal = charityProposals[proposalId];\n        uint256 valueTransfer = 0;\n        // Todo: update more secured algorithm\n        if( (proposal.votesFor > proposal.votesAgainst \n                && \n             proposal.votesFor / totalContribution * 100 > theshold)\n            ||\n            (proposal.countVotesFor > proposal.countVotesAgainst \n                &&\n             proposal.countVotesFor / totalContributors * 100 > minimumNeedToReachWhenEnding\n            )\n        ){\n            emit PropsalTransfered(proposalId, proposal.charityAddress, proposal.amount);\n            emit CharityPropsalFinish(proposalId, proposal.charityAddress, proposal.amount, true);\n            valueTransfer = proposal.amount;\n        }\n        else{\n            emit CharityPropsalFinish(proposalId, proposal.charityAddress, 0, false);\n        }\n        pendingBalance -= proposal.amount;\n\n        proposal.finished = true;\n        proposal.governor = msg.sender;\n\n        if(valueTransfer > 0){\n            proposal.charityAddress.transfer(valueTransfer);\n            availableBalance -= valueTransfer;\n        }\n    }\n\n    // function getProposals()\n    //     public\n    //     view\n    //     returns (CharityProposal[] memory props)\n    // {\n    //     props = new CharityProposal[](numOfProposals);\n\n    //     for (uint256 index = 0; index < numOfProposals; index++) {\n    //         props[index] = charityProposals[index];\n    //     }\n    // }\n\n    // function getProposal(uint256 proposalId)\n    //     public\n    //     view\n    //     returns (CharityProposal memory)\n    // {\n    //     return charityProposals[proposalId];\n    // }\n\n    // function getStakeholderVotes()\n    //     public\n    //     view\n    //     onlyContributor(\"User is not a stakeholder\")\n    //     returns (uint256[] memory)\n    // {\n    //     return stakeholderVotes[msg.sender];\n    // }\n\n    // function getStakeholderBalance()\n    //     public\n    //     view\n    //     onlyContributor(\"User is not a stakeholder\")\n    //     returns (uint256)\n    // {\n    //     return stakeholders[msg.sender];\n    // }\n\n    // function isStakeholder() public view returns (bool) {\n    //     return stakeholders[msg.sender] > 0;\n    // }\n\n    // function getContributorBalance()\n    //     public\n    //     view\n    //     onlyContributor(\"User is not a contributor\")\n    //     returns (uint256)\n    // {\n    //     return contributors[msg.sender];\n    // }\n\n    // function isContributor() public view returns (bool) {\n    //     return contributors[msg.sender] > 0;\n    // }\n}",
  "sourcePath": "/home/sotatek/DaoNft/contracts/DAO_NFT.sol",
  "compiler": {
    "name": "solc",
    "version": "0.8.13+commit.abaa5c0e.Emscripten.clang"
  },
  "schemaVersion": "3.4.1",
  "updatedAt": "2022-04-30T17:01:26.832Z",
  "devdoc": {
    "kind": "dev",
    "methods": {
      "getRoleAdmin(bytes32)": {
        "details": "Returns the admin role that controls `role`. See {grantRole} and {revokeRole}. To change a role's admin, use {_setRoleAdmin}."
      },
      "grantRole(bytes32,address)": {
        "details": "Grants `role` to `account`. If `account` had not been already granted `role`, emits a {RoleGranted} event. Requirements: - the caller must have ``role``'s admin role."
      },
      "hasRole(bytes32,address)": {
        "details": "Returns `true` if `account` has been granted `role`."
      },
      "renounceRole(bytes32,address)": {
        "details": "Revokes `role` from the calling account. Roles are often managed via {grantRole} and {revokeRole}: this function's purpose is to provide a mechanism for accounts to lose their privileges if they are compromised (such as when a trusted device is misplaced). If the calling account had been revoked `role`, emits a {RoleRevoked} event. Requirements: - the caller must be `account`."
      },
      "revokeRole(bytes32,address)": {
        "details": "Revokes `role` from `account`. If `account` had been granted `role`, emits a {RoleRevoked} event. Requirements: - the caller must have ``role``'s admin role."
      },
      "supportsInterface(bytes4)": {
        "details": "See {IERC165-supportsInterface}."
      }
    },
    "version": 1
  },
  "userdoc": {
    "kind": "user",
    "methods": {},
    "version": 1
  }
}